{
	"CiberSecurity/Event.sol": {
		"Event": {
			"abi": [
				{
					"inputs": [
						{
							"internalType": "uint256",
							"name": "_threshold",
							"type": "uint256"
						}
					],
					"stateMutability": "nonpayable",
					"type": "constructor"
				},
				{
					"anonymous": false,
					"inputs": [
						{
							"indexed": false,
							"internalType": "string",
							"name": "_event",
							"type": "string"
						}
					],
					"name": "newEventCreated",
					"type": "event"
				},
				{
					"inputs": [
						{
							"internalType": "string",
							"name": "_event",
							"type": "string"
						}
					],
					"name": "createEvent",
					"outputs": [
						{
							"internalType": "bool",
							"name": "success",
							"type": "bool"
						}
					],
					"stateMutability": "nonpayable",
					"type": "function"
				},
				{
					"inputs": [
						{
							"internalType": "address",
							"name": "",
							"type": "address"
						},
						{
							"internalType": "uint256",
							"name": "",
							"type": "uint256"
						}
					],
					"name": "events",
					"outputs": [
						{
							"internalType": "string",
							"name": "",
							"type": "string"
						}
					],
					"stateMutability": "view",
					"type": "function"
				},
				{
					"inputs": [
						{
							"internalType": "address",
							"name": "",
							"type": "address"
						}
					],
					"name": "eventsCounter",
					"outputs": [
						{
							"internalType": "uint256",
							"name": "",
							"type": "uint256"
						}
					],
					"stateMutability": "view",
					"type": "function"
				},
				{
					"inputs": [
						{
							"internalType": "uint256",
							"name": "_threshold",
							"type": "uint256"
						}
					],
					"name": "setThreshold",
					"outputs": [],
					"stateMutability": "nonpayable",
					"type": "function"
				},
				{
					"inputs": [],
					"name": "threshold",
					"outputs": [
						{
							"internalType": "uint256",
							"name": "",
							"type": "uint256"
						}
					],
					"stateMutability": "view",
					"type": "function"
				}
			],
			"devdoc": {
				"kind": "dev",
				"methods": {},
				"version": 1
			},
			"evm": {
				"assembly": "    /* \"CiberSecurity/Event.sol\":72:1040  contract Event {... */\n  mstore(0x40, 0x80)\n    /* \"CiberSecurity/Event.sol\":450:552  constructor(uint256 _threshold) {... */\n  callvalue\n  dup1\n  iszero\n  tag_1\n  jumpi\n  revert(0x00, 0x00)\ntag_1:\n  pop\n  mload(0x40)\n  sub(codesize, bytecodeSize)\n  dup1\n  bytecodeSize\n  dup4\n  codecopy\n  dup2\n  dup2\n  add\n  0x40\n  mstore\n  dup2\n  add\n  swap1\n  tag_2\n  swap2\n  swap1\n  tag_3\n  jump\t// in\ntag_2:\n    /* \"CiberSecurity/Event.sol\":505:515  _threshold */\n  dup1\n    /* \"CiberSecurity/Event.sol\":493:502  threshold */\n  0x02\n    /* \"CiberSecurity/Event.sol\":493:515  threshold = _threshold */\n  dup2\n  swap1\n  sstore\n  pop\n    /* \"CiberSecurity/Event.sol\":534:544  msg.sender */\n  caller\n    /* \"CiberSecurity/Event.sol\":526:531  owner */\n  0x03\n  0x00\n    /* \"CiberSecurity/Event.sol\":526:544  owner = msg.sender */\n  0x0100\n  exp\n  dup2\n  sload\n  dup2\n  0xffffffffffffffffffffffffffffffffffffffff\n  mul\n  not\n  and\n  swap1\n  dup4\n  0xffffffffffffffffffffffffffffffffffffffff\n  and\n  mul\n  or\n  swap1\n  sstore\n  pop\n    /* \"CiberSecurity/Event.sol\":450:552  constructor(uint256 _threshold) {... */\n  pop\n    /* \"CiberSecurity/Event.sol\":72:1040  contract Event {... */\n  jump(tag_6)\n    /* \"#utility.yul\":88:205   */\ntag_8:\n    /* \"#utility.yul\":197:198   */\n  0x00\n    /* \"#utility.yul\":194:195   */\n  0x00\n    /* \"#utility.yul\":187:199   */\n  revert\n    /* \"#utility.yul\":334:411   */\ntag_10:\n    /* \"#utility.yul\":371:378   */\n  0x00\n    /* \"#utility.yul\":400:405   */\n  dup2\n    /* \"#utility.yul\":389:405   */\n  swap1\n  pop\n    /* \"#utility.yul\":334:411   */\n  swap2\n  swap1\n  pop\n  jump\t// out\n    /* \"#utility.yul\":417:539   */\ntag_11:\n    /* \"#utility.yul\":490:514   */\n  tag_19\n    /* \"#utility.yul\":508:513   */\n  dup2\n    /* \"#utility.yul\":490:514   */\n  tag_10\n  jump\t// in\ntag_19:\n    /* \"#utility.yul\":483:488   */\n  dup2\n    /* \"#utility.yul\":480:515   */\n  eq\n    /* \"#utility.yul\":470:533   */\n  tag_20\n  jumpi\n    /* \"#utility.yul\":529:530   */\n  0x00\n    /* \"#utility.yul\":526:527   */\n  0x00\n    /* \"#utility.yul\":519:531   */\n  revert\n    /* \"#utility.yul\":470:533   */\ntag_20:\n    /* \"#utility.yul\":417:539   */\n  pop\n  jump\t// out\n    /* \"#utility.yul\":545:688   */\ntag_12:\n    /* \"#utility.yul\":602:607   */\n  0x00\n    /* \"#utility.yul\":633:639   */\n  dup2\n    /* \"#utility.yul\":627:640   */\n  mload\n    /* \"#utility.yul\":618:640   */\n  swap1\n  pop\n    /* \"#utility.yul\":649:682   */\n  tag_22\n    /* \"#utility.yul\":676:681   */\n  dup2\n    /* \"#utility.yul\":649:682   */\n  tag_11\n  jump\t// in\ntag_22:\n    /* \"#utility.yul\":545:688   */\n  swap3\n  swap2\n  pop\n  pop\n  jump\t// out\n    /* \"#utility.yul\":694:1045   */\ntag_3:\n    /* \"#utility.yul\":764:770   */\n  0x00\n    /* \"#utility.yul\":813:815   */\n  0x20\n    /* \"#utility.yul\":801:810   */\n  dup3\n    /* \"#utility.yul\":792:799   */\n  dup5\n    /* \"#utility.yul\":788:811   */\n  sub\n    /* \"#utility.yul\":784:816   */\n  slt\n    /* \"#utility.yul\":781:900   */\n  iszero\n  tag_24\n  jumpi\n    /* \"#utility.yul\":819:898   */\n  tag_25\n  tag_8\n  jump\t// in\ntag_25:\n    /* \"#utility.yul\":781:900   */\ntag_24:\n    /* \"#utility.yul\":939:940   */\n  0x00\n    /* \"#utility.yul\":964:1028   */\n  tag_26\n    /* \"#utility.yul\":1020:1027   */\n  dup5\n    /* \"#utility.yul\":1011:1017   */\n  dup3\n    /* \"#utility.yul\":1000:1009   */\n  dup6\n    /* \"#utility.yul\":996:1018   */\n  add\n    /* \"#utility.yul\":964:1028   */\n  tag_12\n  jump\t// in\ntag_26:\n    /* \"#utility.yul\":954:1028   */\n  swap2\n  pop\n    /* \"#utility.yul\":910:1038   */\n  pop\n    /* \"#utility.yul\":694:1045   */\n  swap3\n  swap2\n  pop\n  pop\n  jump\t// out\n    /* \"CiberSecurity/Event.sol\":72:1040  contract Event {... */\ntag_6:\n  dataSize(sub_0)\n  dup1\n  dataOffset(sub_0)\n  0x00\n  codecopy\n  0x00\n  return\nstop\n\nsub_0: assembly {\n        /* \"CiberSecurity/Event.sol\":72:1040  contract Event {... */\n      mstore(0x40, 0x80)\n      callvalue\n      dup1\n      iszero\n      tag_1\n      jumpi\n      revert(0x00, 0x00)\n    tag_1:\n      pop\n      jumpi(tag_2, lt(calldatasize, 0x04))\n      shr(0xe0, calldataload(0x00))\n      dup1\n      0x0ad3430e\n      eq\n      tag_3\n      jumpi\n      dup1\n      0x42cde4e8\n      eq\n      tag_4\n      jumpi\n      dup1\n      0x74dcdc63\n      eq\n      tag_5\n      jumpi\n      dup1\n      0x960bfe04\n      eq\n      tag_6\n      jumpi\n      dup1\n      0x9bc2bc71\n      eq\n      tag_7\n      jumpi\n    tag_2:\n      revert(0x00, 0x00)\n        /* \"CiberSecurity/Event.sol\":206:254  mapping(address => uint256) public eventsCounter */\n    tag_3:\n      tag_8\n      0x04\n      dup1\n      calldatasize\n      sub\n      dup2\n      add\n      swap1\n      tag_9\n      swap2\n      swap1\n      tag_10\n      jump\t// in\n    tag_9:\n      tag_11\n      jump\t// in\n    tag_8:\n      mload(0x40)\n      tag_12\n      swap2\n      swap1\n      tag_13\n      jump\t// in\n    tag_12:\n      mload(0x40)\n      dup1\n      swap2\n      sub\n      swap1\n      return\n        /* \"CiberSecurity/Event.sol\":261:285  uint256 public threshold */\n    tag_4:\n      tag_14\n      tag_15\n      jump\t// in\n    tag_14:\n      mload(0x40)\n      tag_16\n      swap2\n      swap1\n      tag_13\n      jump\t// in\n    tag_16:\n      mload(0x40)\n      dup1\n      swap2\n      sub\n      swap1\n      return\n        /* \"CiberSecurity/Event.sol\":139:199  mapping(address => mapping(uint256 => string)) public events */\n    tag_5:\n      tag_17\n      0x04\n      dup1\n      calldatasize\n      sub\n      dup2\n      add\n      swap1\n      tag_18\n      swap2\n      swap1\n      tag_19\n      jump\t// in\n    tag_18:\n      tag_20\n      jump\t// in\n    tag_17:\n      mload(0x40)\n      tag_21\n      swap2\n      swap1\n      tag_22\n      jump\t// in\n    tag_21:\n      mload(0x40)\n      dup1\n      swap2\n      sub\n      swap1\n      return\n        /* \"CiberSecurity/Event.sol\":937:1037  function setThreshold(uint256 _threshold) public onlyOwner {... */\n    tag_6:\n      tag_23\n      0x04\n      dup1\n      calldatasize\n      sub\n      dup2\n      add\n      swap1\n      tag_24\n      swap2\n      swap1\n      tag_25\n      jump\t// in\n    tag_24:\n      tag_26\n      jump\t// in\n    tag_23:\n      stop\n        /* \"CiberSecurity/Event.sol\":560:929  function createEvent(string memory _event) public returns (bool success) {... */\n    tag_7:\n      tag_27\n      0x04\n      dup1\n      calldatasize\n      sub\n      dup2\n      add\n      swap1\n      tag_28\n      swap2\n      swap1\n      tag_29\n      jump\t// in\n    tag_28:\n      tag_30\n      jump\t// in\n    tag_27:\n      mload(0x40)\n      tag_31\n      swap2\n      swap1\n      tag_32\n      jump\t// in\n    tag_31:\n      mload(0x40)\n      dup1\n      swap2\n      sub\n      swap1\n      return\n        /* \"CiberSecurity/Event.sol\":206:254  mapping(address => uint256) public eventsCounter */\n    tag_11:\n      mstore(0x20, 0x01)\n      dup1\n      0x00\n      mstore\n      keccak256(0x00, 0x40)\n      0x00\n      swap2\n      pop\n      swap1\n      pop\n      sload\n      dup2\n      jump\t// out\n        /* \"CiberSecurity/Event.sol\":261:285  uint256 public threshold */\n    tag_15:\n      sload(0x02)\n      dup2\n      jump\t// out\n        /* \"CiberSecurity/Event.sol\":139:199  mapping(address => mapping(uint256 => string)) public events */\n    tag_20:\n      mstore(0x20, 0x00)\n      dup2\n      0x00\n      mstore\n      mstore(0x20, keccak256(0x00, 0x40))\n      dup1\n      0x00\n      mstore\n      keccak256(0x00, 0x40)\n      0x00\n      swap2\n      pop\n      swap2\n      pop\n      pop\n      dup1\n      sload\n      tag_33\n      swap1\n      tag_34\n      jump\t// in\n    tag_33:\n      dup1\n      0x1f\n      add\n      0x20\n      dup1\n      swap2\n      div\n      mul\n      0x20\n      add\n      mload(0x40)\n      swap1\n      dup2\n      add\n      0x40\n      mstore\n      dup1\n      swap3\n      swap2\n      swap1\n      dup2\n      dup2\n      mstore\n      0x20\n      add\n      dup3\n      dup1\n      sload\n      tag_35\n      swap1\n      tag_34\n      jump\t// in\n    tag_35:\n      dup1\n      iszero\n      tag_36\n      jumpi\n      dup1\n      0x1f\n      lt\n      tag_37\n      jumpi\n      0x0100\n      dup1\n      dup4\n      sload\n      div\n      mul\n      dup4\n      mstore\n      swap2\n      0x20\n      add\n      swap2\n      jump(tag_36)\n    tag_37:\n      dup3\n      add\n      swap2\n      swap1\n      0x00\n      mstore\n      keccak256(0x00, 0x20)\n      swap1\n    tag_38:\n      dup2\n      sload\n      dup2\n      mstore\n      swap1\n      0x01\n      add\n      swap1\n      0x20\n      add\n      dup1\n      dup4\n      gt\n      tag_38\n      jumpi\n      dup3\n      swap1\n      sub\n      0x1f\n      and\n      dup3\n      add\n      swap2\n    tag_36:\n      pop\n      pop\n      pop\n      pop\n      pop\n      dup2\n      jump\t// out\n        /* \"CiberSecurity/Event.sol\":937:1037  function setThreshold(uint256 _threshold) public onlyOwner {... */\n    tag_26:\n        /* \"CiberSecurity/Event.sol\":376:381  owner */\n      0x03\n      0x00\n      swap1\n      sload\n      swap1\n      0x0100\n      exp\n      swap1\n      div\n      0xffffffffffffffffffffffffffffffffffffffff\n      and\n        /* \"CiberSecurity/Event.sol\":362:381  msg.sender == owner */\n      0xffffffffffffffffffffffffffffffffffffffff\n      and\n        /* \"CiberSecurity/Event.sol\":362:372  msg.sender */\n      caller\n        /* \"CiberSecurity/Event.sol\":362:381  msg.sender == owner */\n      0xffffffffffffffffffffffffffffffffffffffff\n      and\n      eq\n        /* \"CiberSecurity/Event.sol\":354:422  require(msg.sender == owner, \"Only owner can execute this function\") */\n      tag_40\n      jumpi\n      mload(0x40)\n      0x08c379a000000000000000000000000000000000000000000000000000000000\n      dup2\n      mstore\n      0x04\n      add\n      tag_41\n      swap1\n      tag_42\n      jump\t// in\n    tag_41:\n      mload(0x40)\n      dup1\n      swap2\n      sub\n      swap1\n      revert\n    tag_40:\n        /* \"CiberSecurity/Event.sol\":1019:1029  _threshold */\n      dup1\n        /* \"CiberSecurity/Event.sol\":1007:1016  threshold */\n      0x02\n        /* \"CiberSecurity/Event.sol\":1007:1029  threshold = _threshold */\n      dup2\n      swap1\n      sstore\n      pop\n        /* \"CiberSecurity/Event.sol\":937:1037  function setThreshold(uint256 _threshold) public onlyOwner {... */\n      pop\n      jump\t// out\n        /* \"CiberSecurity/Event.sol\":560:929  function createEvent(string memory _event) public returns (bool success) {... */\n    tag_30:\n        /* \"CiberSecurity/Event.sol\":619:631  bool success */\n      0x00\n        /* \"CiberSecurity/Event.sol\":644:659  uint256 eventId */\n      0x00\n        /* \"CiberSecurity/Event.sol\":690:691  1 */\n      0x01\n        /* \"CiberSecurity/Event.sol\":662:675  eventsCounter */\n      dup1\n        /* \"CiberSecurity/Event.sol\":662:687  eventsCounter[msg.sender] */\n      0x00\n        /* \"CiberSecurity/Event.sol\":676:686  msg.sender */\n      caller\n        /* \"CiberSecurity/Event.sol\":662:687  eventsCounter[msg.sender] */\n      0xffffffffffffffffffffffffffffffffffffffff\n      and\n      0xffffffffffffffffffffffffffffffffffffffff\n      and\n      dup2\n      mstore\n      0x20\n      add\n      swap1\n      dup2\n      mstore\n      0x20\n      add\n      0x00\n      keccak256\n      sload\n        /* \"CiberSecurity/Event.sol\":662:691  eventsCounter[msg.sender] + 1 */\n      tag_45\n      swap2\n      swap1\n      tag_46\n      jump\t// in\n    tag_45:\n        /* \"CiberSecurity/Event.sol\":644:691  uint256 eventId = eventsCounter[msg.sender] + 1 */\n      swap1\n      pop\n        /* \"CiberSecurity/Event.sol\":716:725  threshold */\n      sload(0x02)\n        /* \"CiberSecurity/Event.sol\":706:713  eventId */\n      dup2\n        /* \"CiberSecurity/Event.sol\":706:725  eventId > threshold */\n      gt\n        /* \"CiberSecurity/Event.sol\":702:765  if (eventId > threshold) {... */\n      iszero\n      tag_47\n      jumpi\n        /* \"CiberSecurity/Event.sol\":752:753  1 */\n      0x01\n        /* \"CiberSecurity/Event.sol\":742:753  eventId = 1 */\n      swap1\n      pop\n        /* \"CiberSecurity/Event.sol\":702:765  if (eventId > threshold) {... */\n    tag_47:\n        /* \"CiberSecurity/Event.sol\":803:810  eventId */\n      dup1\n        /* \"CiberSecurity/Event.sol\":775:788  eventsCounter */\n      0x01\n        /* \"CiberSecurity/Event.sol\":775:800  eventsCounter[msg.sender] */\n      0x00\n        /* \"CiberSecurity/Event.sol\":789:799  msg.sender */\n      caller\n        /* \"CiberSecurity/Event.sol\":775:800  eventsCounter[msg.sender] */\n      0xffffffffffffffffffffffffffffffffffffffff\n      and\n      0xffffffffffffffffffffffffffffffffffffffff\n      and\n      dup2\n      mstore\n      0x20\n      add\n      swap1\n      dup2\n      mstore\n      0x20\n      add\n      0x00\n      keccak256\n        /* \"CiberSecurity/Event.sol\":775:810  eventsCounter[msg.sender] = eventId */\n      dup2\n      swap1\n      sstore\n      pop\n        /* \"CiberSecurity/Event.sol\":851:857  _event */\n      dup3\n        /* \"CiberSecurity/Event.sol\":821:827  events */\n      0x00\n        /* \"CiberSecurity/Event.sol\":821:839  events[msg.sender] */\n      0x00\n        /* \"CiberSecurity/Event.sol\":828:838  msg.sender */\n      caller\n        /* \"CiberSecurity/Event.sol\":821:839  events[msg.sender] */\n      0xffffffffffffffffffffffffffffffffffffffff\n      and\n      0xffffffffffffffffffffffffffffffffffffffff\n      and\n      dup2\n      mstore\n      0x20\n      add\n      swap1\n      dup2\n      mstore\n      0x20\n      add\n      0x00\n      keccak256\n        /* \"CiberSecurity/Event.sol\":821:848  events[msg.sender][eventId] */\n      0x00\n        /* \"CiberSecurity/Event.sol\":840:847  eventId */\n      dup4\n        /* \"CiberSecurity/Event.sol\":821:848  events[msg.sender][eventId] */\n      dup2\n      mstore\n      0x20\n      add\n      swap1\n      dup2\n      mstore\n      0x20\n      add\n      0x00\n      keccak256\n        /* \"CiberSecurity/Event.sol\":821:857  events[msg.sender][eventId] = _event */\n      swap1\n      dup2\n      tag_48\n      swap2\n      swap1\n      tag_49\n      jump\t// in\n    tag_48:\n      pop\n        /* \"CiberSecurity/Event.sol\":873:896  newEventCreated(_event) */\n      0x3c0c8dea9e5e5486a7d5b25f41716a0ee7b12a2a013316408a2fe0870a2f5710\n        /* \"CiberSecurity/Event.sol\":889:895  _event */\n      dup4\n        /* \"CiberSecurity/Event.sol\":873:896  newEventCreated(_event) */\n      mload(0x40)\n      tag_50\n      swap2\n      swap1\n      tag_22\n      jump\t// in\n    tag_50:\n      mload(0x40)\n      dup1\n      swap2\n      sub\n      swap1\n      log1\n        /* \"CiberSecurity/Event.sol\":917:921  true */\n      0x01\n        /* \"CiberSecurity/Event.sol\":907:921  success = true */\n      swap2\n      pop\n        /* \"CiberSecurity/Event.sol\":633:929  {... */\n      pop\n        /* \"CiberSecurity/Event.sol\":560:929  function createEvent(string memory _event) public returns (bool success) {... */\n      swap2\n      swap1\n      pop\n      jump\t// out\n        /* \"#utility.yul\":7:82   */\n    tag_51:\n        /* \"#utility.yul\":40:46   */\n      0x00\n        /* \"#utility.yul\":73:75   */\n      0x40\n        /* \"#utility.yul\":67:76   */\n      mload\n        /* \"#utility.yul\":57:76   */\n      swap1\n      pop\n        /* \"#utility.yul\":7:82   */\n      swap1\n      jump\t// out\n        /* \"#utility.yul\":88:205   */\n    tag_52:\n        /* \"#utility.yul\":197:198   */\n      0x00\n        /* \"#utility.yul\":194:195   */\n      0x00\n        /* \"#utility.yul\":187:199   */\n      revert\n        /* \"#utility.yul\":211:328   */\n    tag_53:\n        /* \"#utility.yul\":320:321   */\n      0x00\n        /* \"#utility.yul\":317:318   */\n      0x00\n        /* \"#utility.yul\":310:322   */\n      revert\n        /* \"#utility.yul\":334:460   */\n    tag_54:\n        /* \"#utility.yul\":371:378   */\n      0x00\n        /* \"#utility.yul\":411:453   */\n      0xffffffffffffffffffffffffffffffffffffffff\n        /* \"#utility.yul\":404:409   */\n      dup3\n        /* \"#utility.yul\":400:454   */\n      and\n        /* \"#utility.yul\":389:454   */\n      swap1\n      pop\n        /* \"#utility.yul\":334:460   */\n      swap2\n      swap1\n      pop\n      jump\t// out\n        /* \"#utility.yul\":466:562   */\n    tag_55:\n        /* \"#utility.yul\":503:510   */\n      0x00\n        /* \"#utility.yul\":532:556   */\n      tag_103\n        /* \"#utility.yul\":550:555   */\n      dup3\n        /* \"#utility.yul\":532:556   */\n      tag_54\n      jump\t// in\n    tag_103:\n        /* \"#utility.yul\":521:556   */\n      swap1\n      pop\n        /* \"#utility.yul\":466:562   */\n      swap2\n      swap1\n      pop\n      jump\t// out\n        /* \"#utility.yul\":568:690   */\n    tag_56:\n        /* \"#utility.yul\":641:665   */\n      tag_105\n        /* \"#utility.yul\":659:664   */\n      dup2\n        /* \"#utility.yul\":641:665   */\n      tag_55\n      jump\t// in\n    tag_105:\n        /* \"#utility.yul\":634:639   */\n      dup2\n        /* \"#utility.yul\":631:666   */\n      eq\n        /* \"#utility.yul\":621:684   */\n      tag_106\n      jumpi\n        /* \"#utility.yul\":680:681   */\n      0x00\n        /* \"#utility.yul\":677:678   */\n      0x00\n        /* \"#utility.yul\":670:682   */\n      revert\n        /* \"#utility.yul\":621:684   */\n    tag_106:\n        /* \"#utility.yul\":568:690   */\n      pop\n      jump\t// out\n        /* \"#utility.yul\":696:835   */\n    tag_57:\n        /* \"#utility.yul\":742:747   */\n      0x00\n        /* \"#utility.yul\":780:786   */\n      dup2\n        /* \"#utility.yul\":767:787   */\n      calldataload\n        /* \"#utility.yul\":758:787   */\n      swap1\n      pop\n        /* \"#utility.yul\":796:829   */\n      tag_108\n        /* \"#utility.yul\":823:828   */\n      dup2\n        /* \"#utility.yul\":796:829   */\n      tag_56\n      jump\t// in\n    tag_108:\n        /* \"#utility.yul\":696:835   */\n      swap3\n      swap2\n      pop\n      pop\n      jump\t// out\n        /* \"#utility.yul\":841:1170   */\n    tag_10:\n        /* \"#utility.yul\":900:906   */\n      0x00\n        /* \"#utility.yul\":949:951   */\n      0x20\n        /* \"#utility.yul\":937:946   */\n      dup3\n        /* \"#utility.yul\":928:935   */\n      dup5\n        /* \"#utility.yul\":924:947   */\n      sub\n        /* \"#utility.yul\":920:952   */\n      slt\n        /* \"#utility.yul\":917:1036   */\n      iszero\n      tag_110\n      jumpi\n        /* \"#utility.yul\":955:1034   */\n      tag_111\n      tag_52\n      jump\t// in\n    tag_111:\n        /* \"#utility.yul\":917:1036   */\n    tag_110:\n        /* \"#utility.yul\":1075:1076   */\n      0x00\n        /* \"#utility.yul\":1100:1153   */\n      tag_112\n        /* \"#utility.yul\":1145:1152   */\n      dup5\n        /* \"#utility.yul\":1136:1142   */\n      dup3\n        /* \"#utility.yul\":1125:1134   */\n      dup6\n        /* \"#utility.yul\":1121:1143   */\n      add\n        /* \"#utility.yul\":1100:1153   */\n      tag_57\n      jump\t// in\n    tag_112:\n        /* \"#utility.yul\":1090:1153   */\n      swap2\n      pop\n        /* \"#utility.yul\":1046:1163   */\n      pop\n        /* \"#utility.yul\":841:1170   */\n      swap3\n      swap2\n      pop\n      pop\n      jump\t// out\n        /* \"#utility.yul\":1176:1253   */\n    tag_58:\n        /* \"#utility.yul\":1213:1220   */\n      0x00\n        /* \"#utility.yul\":1242:1247   */\n      dup2\n        /* \"#utility.yul\":1231:1247   */\n      swap1\n      pop\n        /* \"#utility.yul\":1176:1253   */\n      swap2\n      swap1\n      pop\n      jump\t// out\n        /* \"#utility.yul\":1259:1377   */\n    tag_59:\n        /* \"#utility.yul\":1346:1370   */\n      tag_115\n        /* \"#utility.yul\":1364:1369   */\n      dup2\n        /* \"#utility.yul\":1346:1370   */\n      tag_58\n      jump\t// in\n    tag_115:\n        /* \"#utility.yul\":1341:1344   */\n      dup3\n        /* \"#utility.yul\":1334:1371   */\n      mstore\n        /* \"#utility.yul\":1259:1377   */\n      pop\n      pop\n      jump\t// out\n        /* \"#utility.yul\":1383:1605   */\n    tag_13:\n        /* \"#utility.yul\":1476:1480   */\n      0x00\n        /* \"#utility.yul\":1514:1516   */\n      0x20\n        /* \"#utility.yul\":1503:1512   */\n      dup3\n        /* \"#utility.yul\":1499:1517   */\n      add\n        /* \"#utility.yul\":1491:1517   */\n      swap1\n      pop\n        /* \"#utility.yul\":1527:1598   */\n      tag_117\n        /* \"#utility.yul\":1595:1596   */\n      0x00\n        /* \"#utility.yul\":1584:1593   */\n      dup4\n        /* \"#utility.yul\":1580:1597   */\n      add\n        /* \"#utility.yul\":1571:1577   */\n      dup5\n        /* \"#utility.yul\":1527:1598   */\n      tag_59\n      jump\t// in\n    tag_117:\n        /* \"#utility.yul\":1383:1605   */\n      swap3\n      swap2\n      pop\n      pop\n      jump\t// out\n        /* \"#utility.yul\":1611:1733   */\n    tag_60:\n        /* \"#utility.yul\":1684:1708   */\n      tag_119\n        /* \"#utility.yul\":1702:1707   */\n      dup2\n        /* \"#utility.yul\":1684:1708   */\n      tag_58\n      jump\t// in\n    tag_119:\n        /* \"#utility.yul\":1677:1682   */\n      dup2\n        /* \"#utility.yul\":1674:1709   */\n      eq\n        /* \"#utility.yul\":1664:1727   */\n      tag_120\n      jumpi\n        /* \"#utility.yul\":1723:1724   */\n      0x00\n        /* \"#utility.yul\":1720:1721   */\n      0x00\n        /* \"#utility.yul\":1713:1725   */\n      revert\n        /* \"#utility.yul\":1664:1727   */\n    tag_120:\n        /* \"#utility.yul\":1611:1733   */\n      pop\n      jump\t// out\n        /* \"#utility.yul\":1739:1878   */\n    tag_61:\n        /* \"#utility.yul\":1785:1790   */\n      0x00\n        /* \"#utility.yul\":1823:1829   */\n      dup2\n        /* \"#utility.yul\":1810:1830   */\n      calldataload\n        /* \"#utility.yul\":1801:1830   */\n      swap1\n      pop\n        /* \"#utility.yul\":1839:1872   */\n      tag_122\n        /* \"#utility.yul\":1866:1871   */\n      dup2\n        /* \"#utility.yul\":1839:1872   */\n      tag_60\n      jump\t// in\n    tag_122:\n        /* \"#utility.yul\":1739:1878   */\n      swap3\n      swap2\n      pop\n      pop\n      jump\t// out\n        /* \"#utility.yul\":1884:2358   */\n    tag_19:\n        /* \"#utility.yul\":1952:1958   */\n      0x00\n        /* \"#utility.yul\":1960:1966   */\n      0x00\n        /* \"#utility.yul\":2009:2011   */\n      0x40\n        /* \"#utility.yul\":1997:2006   */\n      dup4\n        /* \"#utility.yul\":1988:1995   */\n      dup6\n        /* \"#utility.yul\":1984:2007   */\n      sub\n        /* \"#utility.yul\":1980:2012   */\n      slt\n        /* \"#utility.yul\":1977:2096   */\n      iszero\n      tag_124\n      jumpi\n        /* \"#utility.yul\":2015:2094   */\n      tag_125\n      tag_52\n      jump\t// in\n    tag_125:\n        /* \"#utility.yul\":1977:2096   */\n    tag_124:\n        /* \"#utility.yul\":2135:2136   */\n      0x00\n        /* \"#utility.yul\":2160:2213   */\n      tag_126\n        /* \"#utility.yul\":2205:2212   */\n      dup6\n        /* \"#utility.yul\":2196:2202   */\n      dup3\n        /* \"#utility.yul\":2185:2194   */\n      dup7\n        /* \"#utility.yul\":2181:2203   */\n      add\n        /* \"#utility.yul\":2160:2213   */\n      tag_57\n      jump\t// in\n    tag_126:\n        /* \"#utility.yul\":2150:2213   */\n      swap3\n      pop\n        /* \"#utility.yul\":2106:2223   */\n      pop\n        /* \"#utility.yul\":2262:2264   */\n      0x20\n        /* \"#utility.yul\":2288:2341   */\n      tag_127\n        /* \"#utility.yul\":2333:2340   */\n      dup6\n        /* \"#utility.yul\":2324:2330   */\n      dup3\n        /* \"#utility.yul\":2313:2322   */\n      dup7\n        /* \"#utility.yul\":2309:2331   */\n      add\n        /* \"#utility.yul\":2288:2341   */\n      tag_61\n      jump\t// in\n    tag_127:\n        /* \"#utility.yul\":2278:2341   */\n      swap2\n      pop\n        /* \"#utility.yul\":2233:2351   */\n      pop\n        /* \"#utility.yul\":1884:2358   */\n      swap3\n      pop\n      swap3\n      swap1\n      pop\n      jump\t// out\n        /* \"#utility.yul\":2364:2463   */\n    tag_62:\n        /* \"#utility.yul\":2416:2422   */\n      0x00\n        /* \"#utility.yul\":2450:2455   */\n      dup2\n        /* \"#utility.yul\":2444:2456   */\n      mload\n        /* \"#utility.yul\":2434:2456   */\n      swap1\n      pop\n        /* \"#utility.yul\":2364:2463   */\n      swap2\n      swap1\n      pop\n      jump\t// out\n        /* \"#utility.yul\":2469:2638   */\n    tag_63:\n        /* \"#utility.yul\":2553:2564   */\n      0x00\n        /* \"#utility.yul\":2587:2593   */\n      dup3\n        /* \"#utility.yul\":2582:2585   */\n      dup3\n        /* \"#utility.yul\":2575:2594   */\n      mstore\n        /* \"#utility.yul\":2627:2631   */\n      0x20\n        /* \"#utility.yul\":2622:2625   */\n      dup3\n        /* \"#utility.yul\":2618:2632   */\n      add\n        /* \"#utility.yul\":2603:2632   */\n      swap1\n      pop\n        /* \"#utility.yul\":2469:2638   */\n      swap3\n      swap2\n      pop\n      pop\n      jump\t// out\n        /* \"#utility.yul\":2644:2783   */\n    tag_64:\n        /* \"#utility.yul\":2733:2739   */\n      dup3\n        /* \"#utility.yul\":2728:2731   */\n      dup2\n        /* \"#utility.yul\":2723:2726   */\n      dup4\n        /* \"#utility.yul\":2717:2740   */\n      mcopy\n        /* \"#utility.yul\":2774:2775   */\n      0x00\n        /* \"#utility.yul\":2765:2771   */\n      dup4\n        /* \"#utility.yul\":2760:2763   */\n      dup4\n        /* \"#utility.yul\":2756:2772   */\n      add\n        /* \"#utility.yul\":2749:2776   */\n      mstore\n        /* \"#utility.yul\":2644:2783   */\n      pop\n      pop\n      pop\n      jump\t// out\n        /* \"#utility.yul\":2789:2891   */\n    tag_65:\n        /* \"#utility.yul\":2830:2836   */\n      0x00\n        /* \"#utility.yul\":2881:2883   */\n      0x1f\n        /* \"#utility.yul\":2877:2884   */\n      not\n        /* \"#utility.yul\":2872:2874   */\n      0x1f\n        /* \"#utility.yul\":2865:2870   */\n      dup4\n        /* \"#utility.yul\":2861:2875   */\n      add\n        /* \"#utility.yul\":2857:2885   */\n      and\n        /* \"#utility.yul\":2847:2885   */\n      swap1\n      pop\n        /* \"#utility.yul\":2789:2891   */\n      swap2\n      swap1\n      pop\n      jump\t// out\n        /* \"#utility.yul\":2897:3274   */\n    tag_66:\n        /* \"#utility.yul\":2985:2988   */\n      0x00\n        /* \"#utility.yul\":3013:3052   */\n      tag_133\n        /* \"#utility.yul\":3046:3051   */\n      dup3\n        /* \"#utility.yul\":3013:3052   */\n      tag_62\n      jump\t// in\n    tag_133:\n        /* \"#utility.yul\":3068:3139   */\n      tag_134\n        /* \"#utility.yul\":3132:3138   */\n      dup2\n        /* \"#utility.yul\":3127:3130   */\n      dup6\n        /* \"#utility.yul\":3068:3139   */\n      tag_63\n      jump\t// in\n    tag_134:\n        /* \"#utility.yul\":3061:3139   */\n      swap4\n      pop\n        /* \"#utility.yul\":3148:3213   */\n      tag_135\n        /* \"#utility.yul\":3206:3212   */\n      dup2\n        /* \"#utility.yul\":3201:3204   */\n      dup6\n        /* \"#utility.yul\":3194:3198   */\n      0x20\n        /* \"#utility.yul\":3187:3192   */\n      dup7\n        /* \"#utility.yul\":3183:3199   */\n      add\n        /* \"#utility.yul\":3148:3213   */\n      tag_64\n      jump\t// in\n    tag_135:\n        /* \"#utility.yul\":3238:3267   */\n      tag_136\n        /* \"#utility.yul\":3260:3266   */\n      dup2\n        /* \"#utility.yul\":3238:3267   */\n      tag_65\n      jump\t// in\n    tag_136:\n        /* \"#utility.yul\":3233:3236   */\n      dup5\n        /* \"#utility.yul\":3229:3268   */\n      add\n        /* \"#utility.yul\":3222:3268   */\n      swap2\n      pop\n        /* \"#utility.yul\":2989:3274   */\n      pop\n        /* \"#utility.yul\":2897:3274   */\n      swap3\n      swap2\n      pop\n      pop\n      jump\t// out\n        /* \"#utility.yul\":3280:3593   */\n    tag_22:\n        /* \"#utility.yul\":3393:3397   */\n      0x00\n        /* \"#utility.yul\":3431:3433   */\n      0x20\n        /* \"#utility.yul\":3420:3429   */\n      dup3\n        /* \"#utility.yul\":3416:3434   */\n      add\n        /* \"#utility.yul\":3408:3434   */\n      swap1\n      pop\n        /* \"#utility.yul\":3480:3489   */\n      dup2\n        /* \"#utility.yul\":3474:3478   */\n      dup2\n        /* \"#utility.yul\":3470:3490   */\n      sub\n        /* \"#utility.yul\":3466:3467   */\n      0x00\n        /* \"#utility.yul\":3455:3464   */\n      dup4\n        /* \"#utility.yul\":3451:3468   */\n      add\n        /* \"#utility.yul\":3444:3491   */\n      mstore\n        /* \"#utility.yul\":3508:3586   */\n      tag_138\n        /* \"#utility.yul\":3581:3585   */\n      dup2\n        /* \"#utility.yul\":3572:3578   */\n      dup5\n        /* \"#utility.yul\":3508:3586   */\n      tag_66\n      jump\t// in\n    tag_138:\n        /* \"#utility.yul\":3500:3586   */\n      swap1\n      pop\n        /* \"#utility.yul\":3280:3593   */\n      swap3\n      swap2\n      pop\n      pop\n      jump\t// out\n        /* \"#utility.yul\":3599:3928   */\n    tag_25:\n        /* \"#utility.yul\":3658:3664   */\n      0x00\n        /* \"#utility.yul\":3707:3709   */\n      0x20\n        /* \"#utility.yul\":3695:3704   */\n      dup3\n        /* \"#utility.yul\":3686:3693   */\n      dup5\n        /* \"#utility.yul\":3682:3705   */\n      sub\n        /* \"#utility.yul\":3678:3710   */\n      slt\n        /* \"#utility.yul\":3675:3794   */\n      iszero\n      tag_140\n      jumpi\n        /* \"#utility.yul\":3713:3792   */\n      tag_141\n      tag_52\n      jump\t// in\n    tag_141:\n        /* \"#utility.yul\":3675:3794   */\n    tag_140:\n        /* \"#utility.yul\":3833:3834   */\n      0x00\n        /* \"#utility.yul\":3858:3911   */\n      tag_142\n        /* \"#utility.yul\":3903:3910   */\n      dup5\n        /* \"#utility.yul\":3894:3900   */\n      dup3\n        /* \"#utility.yul\":3883:3892   */\n      dup6\n        /* \"#utility.yul\":3879:3901   */\n      add\n        /* \"#utility.yul\":3858:3911   */\n      tag_61\n      jump\t// in\n    tag_142:\n        /* \"#utility.yul\":3848:3911   */\n      swap2\n      pop\n        /* \"#utility.yul\":3804:3921   */\n      pop\n        /* \"#utility.yul\":3599:3928   */\n      swap3\n      swap2\n      pop\n      pop\n      jump\t// out\n        /* \"#utility.yul\":3934:4051   */\n    tag_67:\n        /* \"#utility.yul\":4043:4044   */\n      0x00\n        /* \"#utility.yul\":4040:4041   */\n      0x00\n        /* \"#utility.yul\":4033:4045   */\n      revert\n        /* \"#utility.yul\":4057:4174   */\n    tag_68:\n        /* \"#utility.yul\":4166:4167   */\n      0x00\n        /* \"#utility.yul\":4163:4164   */\n      0x00\n        /* \"#utility.yul\":4156:4168   */\n      revert\n        /* \"#utility.yul\":4180:4360   */\n    tag_69:\n        /* \"#utility.yul\":4228:4305   */\n      0x4e487b7100000000000000000000000000000000000000000000000000000000\n        /* \"#utility.yul\":4225:4226   */\n      0x00\n        /* \"#utility.yul\":4218:4306   */\n      mstore\n        /* \"#utility.yul\":4325:4329   */\n      0x41\n        /* \"#utility.yul\":4322:4323   */\n      0x04\n        /* \"#utility.yul\":4315:4330   */\n      mstore\n        /* \"#utility.yul\":4349:4353   */\n      0x24\n        /* \"#utility.yul\":4346:4347   */\n      0x00\n        /* \"#utility.yul\":4339:4354   */\n      revert\n        /* \"#utility.yul\":4366:4647   */\n    tag_70:\n        /* \"#utility.yul\":4449:4476   */\n      tag_147\n        /* \"#utility.yul\":4471:4475   */\n      dup3\n        /* \"#utility.yul\":4449:4476   */\n      tag_65\n      jump\t// in\n    tag_147:\n        /* \"#utility.yul\":4441:4447   */\n      dup2\n        /* \"#utility.yul\":4437:4477   */\n      add\n        /* \"#utility.yul\":4579:4585   */\n      dup2\n        /* \"#utility.yul\":4567:4577   */\n      dup2\n        /* \"#utility.yul\":4564:4586   */\n      lt\n        /* \"#utility.yul\":4543:4561   */\n      0xffffffffffffffff\n        /* \"#utility.yul\":4531:4541   */\n      dup3\n        /* \"#utility.yul\":4528:4562   */\n      gt\n        /* \"#utility.yul\":4525:4587   */\n      or\n        /* \"#utility.yul\":4522:4610   */\n      iszero\n      tag_148\n      jumpi\n        /* \"#utility.yul\":4590:4608   */\n      tag_149\n      tag_69\n      jump\t// in\n    tag_149:\n        /* \"#utility.yul\":4522:4610   */\n    tag_148:\n        /* \"#utility.yul\":4630:4640   */\n      dup1\n        /* \"#utility.yul\":4626:4628   */\n      0x40\n        /* \"#utility.yul\":4619:4641   */\n      mstore\n        /* \"#utility.yul\":4409:4647   */\n      pop\n        /* \"#utility.yul\":4366:4647   */\n      pop\n      pop\n      jump\t// out\n        /* \"#utility.yul\":4653:4782   */\n    tag_71:\n        /* \"#utility.yul\":4687:4693   */\n      0x00\n        /* \"#utility.yul\":4714:4734   */\n      tag_151\n      tag_51\n      jump\t// in\n    tag_151:\n        /* \"#utility.yul\":4704:4734   */\n      swap1\n      pop\n        /* \"#utility.yul\":4743:4776   */\n      tag_152\n        /* \"#utility.yul\":4771:4775   */\n      dup3\n        /* \"#utility.yul\":4763:4769   */\n      dup3\n        /* \"#utility.yul\":4743:4776   */\n      tag_70\n      jump\t// in\n    tag_152:\n        /* \"#utility.yul\":4653:4782   */\n      swap2\n      swap1\n      pop\n      jump\t// out\n        /* \"#utility.yul\":4788:5096   */\n    tag_72:\n        /* \"#utility.yul\":4850:4854   */\n      0x00\n        /* \"#utility.yul\":4940:4958   */\n      0xffffffffffffffff\n        /* \"#utility.yul\":4932:4938   */\n      dup3\n        /* \"#utility.yul\":4929:4959   */\n      gt\n        /* \"#utility.yul\":4926:4982   */\n      iszero\n      tag_154\n      jumpi\n        /* \"#utility.yul\":4962:4980   */\n      tag_155\n      tag_69\n      jump\t// in\n    tag_155:\n        /* \"#utility.yul\":4926:4982   */\n    tag_154:\n        /* \"#utility.yul\":5000:5029   */\n      tag_156\n        /* \"#utility.yul\":5022:5028   */\n      dup3\n        /* \"#utility.yul\":5000:5029   */\n      tag_65\n      jump\t// in\n    tag_156:\n        /* \"#utility.yul\":4992:5029   */\n      swap1\n      pop\n        /* \"#utility.yul\":5084:5088   */\n      0x20\n        /* \"#utility.yul\":5078:5082   */\n      dup2\n        /* \"#utility.yul\":5074:5089   */\n      add\n        /* \"#utility.yul\":5066:5089   */\n      swap1\n      pop\n        /* \"#utility.yul\":4788:5096   */\n      swap2\n      swap1\n      pop\n      jump\t// out\n        /* \"#utility.yul\":5102:5250   */\n    tag_73:\n        /* \"#utility.yul\":5200:5206   */\n      dup3\n        /* \"#utility.yul\":5195:5198   */\n      dup2\n        /* \"#utility.yul\":5190:5193   */\n      dup4\n        /* \"#utility.yul\":5177:5207   */\n      calldatacopy\n        /* \"#utility.yul\":5241:5242   */\n      0x00\n        /* \"#utility.yul\":5232:5238   */\n      dup4\n        /* \"#utility.yul\":5227:5230   */\n      dup4\n        /* \"#utility.yul\":5223:5239   */\n      add\n        /* \"#utility.yul\":5216:5243   */\n      mstore\n        /* \"#utility.yul\":5102:5250   */\n      pop\n      pop\n      pop\n      jump\t// out\n        /* \"#utility.yul\":5256:5681   */\n    tag_74:\n        /* \"#utility.yul\":5334:5339   */\n      0x00\n        /* \"#utility.yul\":5359:5425   */\n      tag_159\n        /* \"#utility.yul\":5375:5424   */\n      tag_160\n        /* \"#utility.yul\":5417:5423   */\n      dup5\n        /* \"#utility.yul\":5375:5424   */\n      tag_72\n      jump\t// in\n    tag_160:\n        /* \"#utility.yul\":5359:5425   */\n      tag_71\n      jump\t// in\n    tag_159:\n        /* \"#utility.yul\":5350:5425   */\n      swap1\n      pop\n        /* \"#utility.yul\":5448:5454   */\n      dup3\n        /* \"#utility.yul\":5441:5446   */\n      dup2\n        /* \"#utility.yul\":5434:5455   */\n      mstore\n        /* \"#utility.yul\":5486:5490   */\n      0x20\n        /* \"#utility.yul\":5479:5484   */\n      dup2\n        /* \"#utility.yul\":5475:5491   */\n      add\n        /* \"#utility.yul\":5524:5527   */\n      dup5\n        /* \"#utility.yul\":5515:5521   */\n      dup5\n        /* \"#utility.yul\":5510:5513   */\n      dup5\n        /* \"#utility.yul\":5506:5522   */\n      add\n        /* \"#utility.yul\":5503:5528   */\n      gt\n        /* \"#utility.yul\":5500:5612   */\n      iszero\n      tag_161\n      jumpi\n        /* \"#utility.yul\":5531:5610   */\n      tag_162\n      tag_68\n      jump\t// in\n    tag_162:\n        /* \"#utility.yul\":5500:5612   */\n    tag_161:\n        /* \"#utility.yul\":5621:5675   */\n      tag_163\n        /* \"#utility.yul\":5668:5674   */\n      dup5\n        /* \"#utility.yul\":5663:5666   */\n      dup3\n        /* \"#utility.yul\":5658:5661   */\n      dup6\n        /* \"#utility.yul\":5621:5675   */\n      tag_73\n      jump\t// in\n    tag_163:\n        /* \"#utility.yul\":5340:5681   */\n      pop\n        /* \"#utility.yul\":5256:5681   */\n      swap4\n      swap3\n      pop\n      pop\n      pop\n      jump\t// out\n        /* \"#utility.yul\":5701:6041   */\n    tag_75:\n        /* \"#utility.yul\":5757:5762   */\n      0x00\n        /* \"#utility.yul\":5806:5809   */\n      dup3\n        /* \"#utility.yul\":5799:5803   */\n      0x1f\n        /* \"#utility.yul\":5791:5797   */\n      dup4\n        /* \"#utility.yul\":5787:5804   */\n      add\n        /* \"#utility.yul\":5783:5810   */\n      slt\n        /* \"#utility.yul\":5773:5895   */\n      tag_165\n      jumpi\n        /* \"#utility.yul\":5814:5893   */\n      tag_166\n      tag_67\n      jump\t// in\n    tag_166:\n        /* \"#utility.yul\":5773:5895   */\n    tag_165:\n        /* \"#utility.yul\":5931:5937   */\n      dup2\n        /* \"#utility.yul\":5918:5938   */\n      calldataload\n        /* \"#utility.yul\":5956:6035   */\n      tag_167\n        /* \"#utility.yul\":6031:6034   */\n      dup5\n        /* \"#utility.yul\":6023:6029   */\n      dup3\n        /* \"#utility.yul\":6016:6020   */\n      0x20\n        /* \"#utility.yul\":6008:6014   */\n      dup7\n        /* \"#utility.yul\":6004:6021   */\n      add\n        /* \"#utility.yul\":5956:6035   */\n      tag_74\n      jump\t// in\n    tag_167:\n        /* \"#utility.yul\":5947:6035   */\n      swap2\n      pop\n        /* \"#utility.yul\":5763:6041   */\n      pop\n        /* \"#utility.yul\":5701:6041   */\n      swap3\n      swap2\n      pop\n      pop\n      jump\t// out\n        /* \"#utility.yul\":6047:6556   */\n    tag_29:\n        /* \"#utility.yul\":6116:6122   */\n      0x00\n        /* \"#utility.yul\":6165:6167   */\n      0x20\n        /* \"#utility.yul\":6153:6162   */\n      dup3\n        /* \"#utility.yul\":6144:6151   */\n      dup5\n        /* \"#utility.yul\":6140:6163   */\n      sub\n        /* \"#utility.yul\":6136:6168   */\n      slt\n        /* \"#utility.yul\":6133:6252   */\n      iszero\n      tag_169\n      jumpi\n        /* \"#utility.yul\":6171:6250   */\n      tag_170\n      tag_52\n      jump\t// in\n    tag_170:\n        /* \"#utility.yul\":6133:6252   */\n    tag_169:\n        /* \"#utility.yul\":6319:6320   */\n      0x00\n        /* \"#utility.yul\":6308:6317   */\n      dup3\n        /* \"#utility.yul\":6304:6321   */\n      add\n        /* \"#utility.yul\":6291:6322   */\n      calldataload\n        /* \"#utility.yul\":6349:6367   */\n      0xffffffffffffffff\n        /* \"#utility.yul\":6341:6347   */\n      dup2\n        /* \"#utility.yul\":6338:6368   */\n      gt\n        /* \"#utility.yul\":6335:6452   */\n      iszero\n      tag_171\n      jumpi\n        /* \"#utility.yul\":6371:6450   */\n      tag_172\n      tag_53\n      jump\t// in\n    tag_172:\n        /* \"#utility.yul\":6335:6452   */\n    tag_171:\n        /* \"#utility.yul\":6476:6539   */\n      tag_173\n        /* \"#utility.yul\":6531:6538   */\n      dup5\n        /* \"#utility.yul\":6522:6528   */\n      dup3\n        /* \"#utility.yul\":6511:6520   */\n      dup6\n        /* \"#utility.yul\":6507:6529   */\n      add\n        /* \"#utility.yul\":6476:6539   */\n      tag_75\n      jump\t// in\n    tag_173:\n        /* \"#utility.yul\":6466:6539   */\n      swap2\n      pop\n        /* \"#utility.yul\":6262:6549   */\n      pop\n        /* \"#utility.yul\":6047:6556   */\n      swap3\n      swap2\n      pop\n      pop\n      jump\t// out\n        /* \"#utility.yul\":6562:6652   */\n    tag_76:\n        /* \"#utility.yul\":6596:6603   */\n      0x00\n        /* \"#utility.yul\":6639:6644   */\n      dup2\n        /* \"#utility.yul\":6632:6645   */\n      iszero\n        /* \"#utility.yul\":6625:6646   */\n      iszero\n        /* \"#utility.yul\":6614:6646   */\n      swap1\n      pop\n        /* \"#utility.yul\":6562:6652   */\n      swap2\n      swap1\n      pop\n      jump\t// out\n        /* \"#utility.yul\":6658:6767   */\n    tag_77:\n        /* \"#utility.yul\":6739:6760   */\n      tag_176\n        /* \"#utility.yul\":6754:6759   */\n      dup2\n        /* \"#utility.yul\":6739:6760   */\n      tag_76\n      jump\t// in\n    tag_176:\n        /* \"#utility.yul\":6734:6737   */\n      dup3\n        /* \"#utility.yul\":6727:6761   */\n      mstore\n        /* \"#utility.yul\":6658:6767   */\n      pop\n      pop\n      jump\t// out\n        /* \"#utility.yul\":6773:6983   */\n    tag_32:\n        /* \"#utility.yul\":6860:6864   */\n      0x00\n        /* \"#utility.yul\":6898:6900   */\n      0x20\n        /* \"#utility.yul\":6887:6896   */\n      dup3\n        /* \"#utility.yul\":6883:6901   */\n      add\n        /* \"#utility.yul\":6875:6901   */\n      swap1\n      pop\n        /* \"#utility.yul\":6911:6976   */\n      tag_178\n        /* \"#utility.yul\":6973:6974   */\n      0x00\n        /* \"#utility.yul\":6962:6971   */\n      dup4\n        /* \"#utility.yul\":6958:6975   */\n      add\n        /* \"#utility.yul\":6949:6955   */\n      dup5\n        /* \"#utility.yul\":6911:6976   */\n      tag_77\n      jump\t// in\n    tag_178:\n        /* \"#utility.yul\":6773:6983   */\n      swap3\n      swap2\n      pop\n      pop\n      jump\t// out\n        /* \"#utility.yul\":6989:7169   */\n    tag_78:\n        /* \"#utility.yul\":7037:7114   */\n      0x4e487b7100000000000000000000000000000000000000000000000000000000\n        /* \"#utility.yul\":7034:7035   */\n      0x00\n        /* \"#utility.yul\":7027:7115   */\n      mstore\n        /* \"#utility.yul\":7134:7138   */\n      0x22\n        /* \"#utility.yul\":7131:7132   */\n      0x04\n        /* \"#utility.yul\":7124:7139   */\n      mstore\n        /* \"#utility.yul\":7158:7162   */\n      0x24\n        /* \"#utility.yul\":7155:7156   */\n      0x00\n        /* \"#utility.yul\":7148:7163   */\n      revert\n        /* \"#utility.yul\":7175:7495   */\n    tag_34:\n        /* \"#utility.yul\":7219:7225   */\n      0x00\n        /* \"#utility.yul\":7256:7257   */\n      0x02\n        /* \"#utility.yul\":7250:7254   */\n      dup3\n        /* \"#utility.yul\":7246:7258   */\n      div\n        /* \"#utility.yul\":7236:7258   */\n      swap1\n      pop\n        /* \"#utility.yul\":7303:7304   */\n      0x01\n        /* \"#utility.yul\":7297:7301   */\n      dup3\n        /* \"#utility.yul\":7293:7305   */\n      and\n        /* \"#utility.yul\":7324:7342   */\n      dup1\n        /* \"#utility.yul\":7314:7395   */\n      tag_181\n      jumpi\n        /* \"#utility.yul\":7380:7384   */\n      0x7f\n        /* \"#utility.yul\":7372:7378   */\n      dup3\n        /* \"#utility.yul\":7368:7385   */\n      and\n        /* \"#utility.yul\":7358:7385   */\n      swap2\n      pop\n        /* \"#utility.yul\":7314:7395   */\n    tag_181:\n        /* \"#utility.yul\":7442:7444   */\n      0x20\n        /* \"#utility.yul\":7434:7440   */\n      dup3\n        /* \"#utility.yul\":7431:7445   */\n      lt\n        /* \"#utility.yul\":7411:7429   */\n      dup2\n        /* \"#utility.yul\":7408:7446   */\n      sub\n        /* \"#utility.yul\":7405:7489   */\n      tag_182\n      jumpi\n        /* \"#utility.yul\":7461:7479   */\n      tag_183\n      tag_78\n      jump\t// in\n    tag_183:\n        /* \"#utility.yul\":7405:7489   */\n    tag_182:\n        /* \"#utility.yul\":7226:7495   */\n      pop\n        /* \"#utility.yul\":7175:7495   */\n      swap2\n      swap1\n      pop\n      jump\t// out\n        /* \"#utility.yul\":7501:7724   */\n    tag_79:\n        /* \"#utility.yul\":7641:7675   */\n      0x4f6e6c79206f776e65722063616e206578656375746520746869732066756e63\n        /* \"#utility.yul\":7637:7638   */\n      0x00\n        /* \"#utility.yul\":7629:7635   */\n      dup3\n        /* \"#utility.yul\":7625:7639   */\n      add\n        /* \"#utility.yul\":7618:7676   */\n      mstore\n        /* \"#utility.yul\":7710:7716   */\n      0x74696f6e00000000000000000000000000000000000000000000000000000000\n        /* \"#utility.yul\":7705:7707   */\n      0x20\n        /* \"#utility.yul\":7697:7703   */\n      dup3\n        /* \"#utility.yul\":7693:7708   */\n      add\n        /* \"#utility.yul\":7686:7717   */\n      mstore\n        /* \"#utility.yul\":7501:7724   */\n      pop\n      jump\t// out\n        /* \"#utility.yul\":7730:8096   */\n    tag_80:\n        /* \"#utility.yul\":7872:7875   */\n      0x00\n        /* \"#utility.yul\":7893:7960   */\n      tag_186\n        /* \"#utility.yul\":7957:7959   */\n      0x24\n        /* \"#utility.yul\":7952:7955   */\n      dup4\n        /* \"#utility.yul\":7893:7960   */\n      tag_63\n      jump\t// in\n    tag_186:\n        /* \"#utility.yul\":7886:7960   */\n      swap2\n      pop\n        /* \"#utility.yul\":7969:8062   */\n      tag_187\n        /* \"#utility.yul\":8058:8061   */\n      dup3\n        /* \"#utility.yul\":7969:8062   */\n      tag_79\n      jump\t// in\n    tag_187:\n        /* \"#utility.yul\":8087:8089   */\n      0x40\n        /* \"#utility.yul\":8082:8085   */\n      dup3\n        /* \"#utility.yul\":8078:8090   */\n      add\n        /* \"#utility.yul\":8071:8090   */\n      swap1\n      pop\n        /* \"#utility.yul\":7730:8096   */\n      swap2\n      swap1\n      pop\n      jump\t// out\n        /* \"#utility.yul\":8102:8521   */\n    tag_42:\n        /* \"#utility.yul\":8268:8272   */\n      0x00\n        /* \"#utility.yul\":8306:8308   */\n      0x20\n        /* \"#utility.yul\":8295:8304   */\n      dup3\n        /* \"#utility.yul\":8291:8309   */\n      add\n        /* \"#utility.yul\":8283:8309   */\n      swap1\n      pop\n        /* \"#utility.yul\":8355:8364   */\n      dup2\n        /* \"#utility.yul\":8349:8353   */\n      dup2\n        /* \"#utility.yul\":8345:8365   */\n      sub\n        /* \"#utility.yul\":8341:8342   */\n      0x00\n        /* \"#utility.yul\":8330:8339   */\n      dup4\n        /* \"#utility.yul\":8326:8343   */\n      add\n        /* \"#utility.yul\":8319:8366   */\n      mstore\n        /* \"#utility.yul\":8383:8514   */\n      tag_189\n        /* \"#utility.yul\":8509:8513   */\n      dup2\n        /* \"#utility.yul\":8383:8514   */\n      tag_80\n      jump\t// in\n    tag_189:\n        /* \"#utility.yul\":8375:8514   */\n      swap1\n      pop\n        /* \"#utility.yul\":8102:8521   */\n      swap2\n      swap1\n      pop\n      jump\t// out\n        /* \"#utility.yul\":8527:8707   */\n    tag_81:\n        /* \"#utility.yul\":8575:8652   */\n      0x4e487b7100000000000000000000000000000000000000000000000000000000\n        /* \"#utility.yul\":8572:8573   */\n      0x00\n        /* \"#utility.yul\":8565:8653   */\n      mstore\n        /* \"#utility.yul\":8672:8676   */\n      0x11\n        /* \"#utility.yul\":8669:8670   */\n      0x04\n        /* \"#utility.yul\":8662:8677   */\n      mstore\n        /* \"#utility.yul\":8696:8700   */\n      0x24\n        /* \"#utility.yul\":8693:8694   */\n      0x00\n        /* \"#utility.yul\":8686:8701   */\n      revert\n        /* \"#utility.yul\":8713:8904   */\n    tag_46:\n        /* \"#utility.yul\":8753:8756   */\n      0x00\n        /* \"#utility.yul\":8772:8792   */\n      tag_192\n        /* \"#utility.yul\":8790:8791   */\n      dup3\n        /* \"#utility.yul\":8772:8792   */\n      tag_58\n      jump\t// in\n    tag_192:\n        /* \"#utility.yul\":8767:8792   */\n      swap2\n      pop\n        /* \"#utility.yul\":8806:8826   */\n      tag_193\n        /* \"#utility.yul\":8824:8825   */\n      dup4\n        /* \"#utility.yul\":8806:8826   */\n      tag_58\n      jump\t// in\n    tag_193:\n        /* \"#utility.yul\":8801:8826   */\n      swap3\n      pop\n        /* \"#utility.yul\":8849:8850   */\n      dup3\n        /* \"#utility.yul\":8846:8847   */\n      dup3\n        /* \"#utility.yul\":8842:8851   */\n      add\n        /* \"#utility.yul\":8835:8851   */\n      swap1\n      pop\n        /* \"#utility.yul\":8870:8873   */\n      dup1\n        /* \"#utility.yul\":8867:8868   */\n      dup3\n        /* \"#utility.yul\":8864:8874   */\n      gt\n        /* \"#utility.yul\":8861:8897   */\n      iszero\n      tag_194\n      jumpi\n        /* \"#utility.yul\":8877:8895   */\n      tag_195\n      tag_81\n      jump\t// in\n    tag_195:\n        /* \"#utility.yul\":8861:8897   */\n    tag_194:\n        /* \"#utility.yul\":8713:8904   */\n      swap3\n      swap2\n      pop\n      pop\n      jump\t// out\n        /* \"#utility.yul\":8910:9051   */\n    tag_82:\n        /* \"#utility.yul\":8959:8963   */\n      0x00\n        /* \"#utility.yul\":8982:8985   */\n      dup2\n        /* \"#utility.yul\":8974:8985   */\n      swap1\n      pop\n        /* \"#utility.yul\":9005:9008   */\n      dup2\n        /* \"#utility.yul\":9002:9003   */\n      0x00\n        /* \"#utility.yul\":8995:9009   */\n      mstore\n        /* \"#utility.yul\":9039:9043   */\n      0x20\n        /* \"#utility.yul\":9036:9037   */\n      0x00\n        /* \"#utility.yul\":9026:9044   */\n      keccak256\n        /* \"#utility.yul\":9018:9044   */\n      swap1\n      pop\n        /* \"#utility.yul\":8910:9051   */\n      swap2\n      swap1\n      pop\n      jump\t// out\n        /* \"#utility.yul\":9057:9150   */\n    tag_83:\n        /* \"#utility.yul\":9094:9100   */\n      0x00\n        /* \"#utility.yul\":9141:9143   */\n      0x20\n        /* \"#utility.yul\":9136:9138   */\n      0x1f\n        /* \"#utility.yul\":9129:9134   */\n      dup4\n        /* \"#utility.yul\":9125:9139   */\n      add\n        /* \"#utility.yul\":9121:9144   */\n      div\n        /* \"#utility.yul\":9111:9144   */\n      swap1\n      pop\n        /* \"#utility.yul\":9057:9150   */\n      swap2\n      swap1\n      pop\n      jump\t// out\n        /* \"#utility.yul\":9156:9263   */\n    tag_84:\n        /* \"#utility.yul\":9200:9208   */\n      0x00\n        /* \"#utility.yul\":9250:9255   */\n      dup3\n        /* \"#utility.yul\":9244:9248   */\n      dup3\n        /* \"#utility.yul\":9240:9256   */\n      shl\n        /* \"#utility.yul\":9219:9256   */\n      swap1\n      pop\n        /* \"#utility.yul\":9156:9263   */\n      swap3\n      swap2\n      pop\n      pop\n      jump\t// out\n        /* \"#utility.yul\":9269:9662   */\n    tag_85:\n        /* \"#utility.yul\":9338:9344   */\n      0x00\n        /* \"#utility.yul\":9388:9389   */\n      0x08\n        /* \"#utility.yul\":9376:9386   */\n      dup4\n        /* \"#utility.yul\":9372:9390   */\n      mul\n        /* \"#utility.yul\":9411:9508   */\n      tag_200\n        /* \"#utility.yul\":9441:9507   */\n      0xffffffffffffffffffffffffffffffffffffffffffffffffffffffffffffffff\n        /* \"#utility.yul\":9430:9439   */\n      dup3\n        /* \"#utility.yul\":9411:9508   */\n      tag_84\n      jump\t// in\n    tag_200:\n        /* \"#utility.yul\":9529:9568   */\n      tag_201\n        /* \"#utility.yul\":9559:9567   */\n      dup7\n        /* \"#utility.yul\":9548:9557   */\n      dup4\n        /* \"#utility.yul\":9529:9568   */\n      tag_84\n      jump\t// in\n    tag_201:\n        /* \"#utility.yul\":9517:9568   */\n      swap6\n      pop\n        /* \"#utility.yul\":9601:9605   */\n      dup1\n        /* \"#utility.yul\":9597:9606   */\n      not\n        /* \"#utility.yul\":9590:9595   */\n      dup5\n        /* \"#utility.yul\":9586:9607   */\n      and\n        /* \"#utility.yul\":9577:9607   */\n      swap4\n      pop\n        /* \"#utility.yul\":9650:9654   */\n      dup1\n        /* \"#utility.yul\":9640:9648   */\n      dup7\n        /* \"#utility.yul\":9636:9655   */\n      and\n        /* \"#utility.yul\":9629:9634   */\n      dup5\n        /* \"#utility.yul\":9626:9656   */\n      or\n        /* \"#utility.yul\":9616:9656   */\n      swap3\n      pop\n        /* \"#utility.yul\":9345:9662   */\n      pop\n      pop\n        /* \"#utility.yul\":9269:9662   */\n      swap4\n      swap3\n      pop\n      pop\n      pop\n      jump\t// out\n        /* \"#utility.yul\":9668:9728   */\n    tag_86:\n        /* \"#utility.yul\":9696:9699   */\n      0x00\n        /* \"#utility.yul\":9717:9722   */\n      dup2\n        /* \"#utility.yul\":9710:9722   */\n      swap1\n      pop\n        /* \"#utility.yul\":9668:9728   */\n      swap2\n      swap1\n      pop\n      jump\t// out\n        /* \"#utility.yul\":9734:9876   */\n    tag_87:\n        /* \"#utility.yul\":9784:9793   */\n      0x00\n        /* \"#utility.yul\":9817:9870   */\n      tag_204\n        /* \"#utility.yul\":9835:9869   */\n      tag_205\n        /* \"#utility.yul\":9844:9868   */\n      tag_206\n        /* \"#utility.yul\":9862:9867   */\n      dup5\n        /* \"#utility.yul\":9844:9868   */\n      tag_58\n      jump\t// in\n    tag_206:\n        /* \"#utility.yul\":9835:9869   */\n      tag_86\n      jump\t// in\n    tag_205:\n        /* \"#utility.yul\":9817:9870   */\n      tag_58\n      jump\t// in\n    tag_204:\n        /* \"#utility.yul\":9804:9870   */\n      swap1\n      pop\n        /* \"#utility.yul\":9734:9876   */\n      swap2\n      swap1\n      pop\n      jump\t// out\n        /* \"#utility.yul\":9882:9957   */\n    tag_88:\n        /* \"#utility.yul\":9925:9928   */\n      0x00\n        /* \"#utility.yul\":9946:9951   */\n      dup2\n        /* \"#utility.yul\":9939:9951   */\n      swap1\n      pop\n        /* \"#utility.yul\":9882:9957   */\n      swap2\n      swap1\n      pop\n      jump\t// out\n        /* \"#utility.yul\":9963:10232   */\n    tag_89:\n        /* \"#utility.yul\":10073:10112   */\n      tag_209\n        /* \"#utility.yul\":10104:10111   */\n      dup4\n        /* \"#utility.yul\":10073:10112   */\n      tag_87\n      jump\t// in\n    tag_209:\n        /* \"#utility.yul\":10134:10225   */\n      tag_210\n        /* \"#utility.yul\":10183:10224   */\n      tag_211\n        /* \"#utility.yul\":10207:10223   */\n      dup3\n        /* \"#utility.yul\":10183:10224   */\n      tag_88\n      jump\t// in\n    tag_211:\n        /* \"#utility.yul\":10175:10181   */\n      dup5\n        /* \"#utility.yul\":10168:10172   */\n      dup5\n        /* \"#utility.yul\":10162:10173   */\n      sload\n        /* \"#utility.yul\":10134:10225   */\n      tag_85\n      jump\t// in\n    tag_210:\n        /* \"#utility.yul\":10128:10132   */\n      dup3\n        /* \"#utility.yul\":10121:10226   */\n      sstore\n        /* \"#utility.yul\":10039:10232   */\n      pop\n        /* \"#utility.yul\":9963:10232   */\n      pop\n      pop\n      pop\n      jump\t// out\n        /* \"#utility.yul\":10238:10311   */\n    tag_90:\n        /* \"#utility.yul\":10283:10286   */\n      0x00\n        /* \"#utility.yul\":10304:10305   */\n      0x00\n        /* \"#utility.yul\":10297:10305   */\n      swap1\n      pop\n        /* \"#utility.yul\":10238:10311   */\n      swap1\n      jump\t// out\n        /* \"#utility.yul\":10317:10506   */\n    tag_91:\n        /* \"#utility.yul\":10394:10426   */\n      tag_214\n      tag_90\n      jump\t// in\n    tag_214:\n        /* \"#utility.yul\":10435:10500   */\n      tag_215\n        /* \"#utility.yul\":10493:10499   */\n      dup2\n        /* \"#utility.yul\":10485:10491   */\n      dup5\n        /* \"#utility.yul\":10479:10483   */\n      dup5\n        /* \"#utility.yul\":10435:10500   */\n      tag_89\n      jump\t// in\n    tag_215:\n        /* \"#utility.yul\":10370:10506   */\n      pop\n        /* \"#utility.yul\":10317:10506   */\n      pop\n      pop\n      jump\t// out\n        /* \"#utility.yul\":10512:10698   */\n    tag_92:\n        /* \"#utility.yul\":10572:10692   */\n    tag_217:\n        /* \"#utility.yul\":10589:10592   */\n      dup2\n        /* \"#utility.yul\":10582:10587   */\n      dup2\n        /* \"#utility.yul\":10579:10593   */\n      lt\n        /* \"#utility.yul\":10572:10692   */\n      iszero\n      tag_219\n      jumpi\n        /* \"#utility.yul\":10643:10682   */\n      tag_220\n        /* \"#utility.yul\":10680:10681   */\n      0x00\n        /* \"#utility.yul\":10673:10678   */\n      dup3\n        /* \"#utility.yul\":10643:10682   */\n      tag_91\n      jump\t// in\n    tag_220:\n        /* \"#utility.yul\":10616:10617   */\n      0x01\n        /* \"#utility.yul\":10609:10614   */\n      dup2\n        /* \"#utility.yul\":10605:10618   */\n      add\n        /* \"#utility.yul\":10596:10618   */\n      swap1\n      pop\n        /* \"#utility.yul\":10572:10692   */\n      jump(tag_217)\n    tag_219:\n        /* \"#utility.yul\":10512:10698   */\n      pop\n      pop\n      jump\t// out\n        /* \"#utility.yul\":10704:11247   */\n    tag_93:\n        /* \"#utility.yul\":10805:10807   */\n      0x1f\n        /* \"#utility.yul\":10800:10803   */\n      dup3\n        /* \"#utility.yul\":10797:10808   */\n      gt\n        /* \"#utility.yul\":10794:11240   */\n      iszero\n      tag_222\n      jumpi\n        /* \"#utility.yul\":10839:10877   */\n      tag_223\n        /* \"#utility.yul\":10871:10876   */\n      dup2\n        /* \"#utility.yul\":10839:10877   */\n      tag_82\n      jump\t// in\n    tag_223:\n        /* \"#utility.yul\":10923:10952   */\n      tag_224\n        /* \"#utility.yul\":10941:10951   */\n      dup5\n        /* \"#utility.yul\":10923:10952   */\n      tag_83\n      jump\t// in\n    tag_224:\n        /* \"#utility.yul\":10913:10921   */\n      dup2\n        /* \"#utility.yul\":10909:10953   */\n      add\n        /* \"#utility.yul\":11106:11108   */\n      0x20\n        /* \"#utility.yul\":11094:11104   */\n      dup6\n        /* \"#utility.yul\":11091:11109   */\n      lt\n        /* \"#utility.yul\":11088:11137   */\n      iszero\n      tag_225\n      jumpi\n        /* \"#utility.yul\":11127:11135   */\n      dup2\n        /* \"#utility.yul\":11112:11135   */\n      swap1\n      pop\n        /* \"#utility.yul\":11088:11137   */\n    tag_225:\n        /* \"#utility.yul\":11150:11230   */\n      tag_226\n        /* \"#utility.yul\":11206:11228   */\n      tag_227\n        /* \"#utility.yul\":11224:11227   */\n      dup6\n        /* \"#utility.yul\":11206:11228   */\n      tag_83\n      jump\t// in\n    tag_227:\n        /* \"#utility.yul\":11196:11204   */\n      dup4\n        /* \"#utility.yul\":11192:11229   */\n      add\n        /* \"#utility.yul\":11179:11190   */\n      dup3\n        /* \"#utility.yul\":11150:11230   */\n      tag_92\n      jump\t// in\n    tag_226:\n        /* \"#utility.yul\":10809:11240   */\n      pop\n      pop\n        /* \"#utility.yul\":10794:11240   */\n    tag_222:\n        /* \"#utility.yul\":10704:11247   */\n      pop\n      pop\n      pop\n      jump\t// out\n        /* \"#utility.yul\":11253:11370   */\n    tag_94:\n        /* \"#utility.yul\":11307:11315   */\n      0x00\n        /* \"#utility.yul\":11357:11362   */\n      dup3\n        /* \"#utility.yul\":11351:11355   */\n      dup3\n        /* \"#utility.yul\":11347:11363   */\n      shr\n        /* \"#utility.yul\":11326:11363   */\n      swap1\n      pop\n        /* \"#utility.yul\":11253:11370   */\n      swap3\n      swap2\n      pop\n      pop\n      jump\t// out\n        /* \"#utility.yul\":11376:11545   */\n    tag_95:\n        /* \"#utility.yul\":11420:11426   */\n      0x00\n        /* \"#utility.yul\":11453:11504   */\n      tag_230\n        /* \"#utility.yul\":11501:11502   */\n      0x00\n        /* \"#utility.yul\":11497:11503   */\n      not\n        /* \"#utility.yul\":11489:11494   */\n      dup5\n        /* \"#utility.yul\":11486:11487   */\n      0x08\n        /* \"#utility.yul\":11482:11495   */\n      mul\n        /* \"#utility.yul\":11453:11504   */\n      tag_94\n      jump\t// in\n    tag_230:\n        /* \"#utility.yul\":11449:11505   */\n      not\n        /* \"#utility.yul\":11534:11538   */\n      dup1\n        /* \"#utility.yul\":11528:11532   */\n      dup4\n        /* \"#utility.yul\":11524:11539   */\n      and\n        /* \"#utility.yul\":11514:11539   */\n      swap2\n      pop\n        /* \"#utility.yul\":11427:11545   */\n      pop\n        /* \"#utility.yul\":11376:11545   */\n      swap3\n      swap2\n      pop\n      pop\n      jump\t// out\n        /* \"#utility.yul\":11550:11845   */\n    tag_96:\n        /* \"#utility.yul\":11626:11630   */\n      0x00\n        /* \"#utility.yul\":11772:11801   */\n      tag_232\n        /* \"#utility.yul\":11797:11800   */\n      dup4\n        /* \"#utility.yul\":11791:11795   */\n      dup4\n        /* \"#utility.yul\":11772:11801   */\n      tag_95\n      jump\t// in\n    tag_232:\n        /* \"#utility.yul\":11764:11801   */\n      swap2\n      pop\n        /* \"#utility.yul\":11834:11837   */\n      dup3\n        /* \"#utility.yul\":11831:11832   */\n      0x02\n        /* \"#utility.yul\":11827:11838   */\n      mul\n        /* \"#utility.yul\":11821:11825   */\n      dup3\n        /* \"#utility.yul\":11818:11839   */\n      or\n        /* \"#utility.yul\":11810:11839   */\n      swap1\n      pop\n        /* \"#utility.yul\":11550:11845   */\n      swap3\n      swap2\n      pop\n      pop\n      jump\t// out\n        /* \"#utility.yul\":11850:13245   */\n    tag_49:\n        /* \"#utility.yul\":11967:12004   */\n      tag_234\n        /* \"#utility.yul\":12000:12003   */\n      dup3\n        /* \"#utility.yul\":11967:12004   */\n      tag_62\n      jump\t// in\n    tag_234:\n        /* \"#utility.yul\":12069:12087   */\n      0xffffffffffffffff\n        /* \"#utility.yul\":12061:12067   */\n      dup2\n        /* \"#utility.yul\":12058:12088   */\n      gt\n        /* \"#utility.yul\":12055:12111   */\n      iszero\n      tag_235\n      jumpi\n        /* \"#utility.yul\":12091:12109   */\n      tag_236\n      tag_69\n      jump\t// in\n    tag_236:\n        /* \"#utility.yul\":12055:12111   */\n    tag_235:\n        /* \"#utility.yul\":12135:12173   */\n      tag_237\n        /* \"#utility.yul\":12167:12171   */\n      dup3\n        /* \"#utility.yul\":12161:12172   */\n      sload\n        /* \"#utility.yul\":12135:12173   */\n      tag_34\n      jump\t// in\n    tag_237:\n        /* \"#utility.yul\":12220:12287   */\n      tag_238\n        /* \"#utility.yul\":12280:12286   */\n      dup3\n        /* \"#utility.yul\":12272:12278   */\n      dup3\n        /* \"#utility.yul\":12266:12270   */\n      dup6\n        /* \"#utility.yul\":12220:12287   */\n      tag_93\n      jump\t// in\n    tag_238:\n        /* \"#utility.yul\":12314:12315   */\n      0x00\n        /* \"#utility.yul\":12338:12342   */\n      0x20\n        /* \"#utility.yul\":12325:12342   */\n      swap1\n      pop\n        /* \"#utility.yul\":12370:12372   */\n      0x1f\n        /* \"#utility.yul\":12362:12368   */\n      dup4\n        /* \"#utility.yul\":12359:12373   */\n      gt\n        /* \"#utility.yul\":12387:12388   */\n      0x01\n        /* \"#utility.yul\":12382:13000   */\n      dup2\n      eq\n      tag_240\n      jumpi\n        /* \"#utility.yul\":13044:13045   */\n      0x00\n        /* \"#utility.yul\":13061:13067   */\n      dup5\n        /* \"#utility.yul\":13058:13135   */\n      iszero\n      tag_241\n      jumpi\n        /* \"#utility.yul\":13110:13119   */\n      dup3\n        /* \"#utility.yul\":13105:13108   */\n      dup8\n        /* \"#utility.yul\":13101:13120   */\n      add\n        /* \"#utility.yul\":13095:13121   */\n      mload\n        /* \"#utility.yul\":13086:13121   */\n      swap1\n      pop\n        /* \"#utility.yul\":13058:13135   */\n    tag_241:\n        /* \"#utility.yul\":13161:13228   */\n      tag_242\n        /* \"#utility.yul\":13221:13227   */\n      dup6\n        /* \"#utility.yul\":13214:13219   */\n      dup3\n        /* \"#utility.yul\":13161:13228   */\n      tag_96\n      jump\t// in\n    tag_242:\n        /* \"#utility.yul\":13155:13159   */\n      dup7\n        /* \"#utility.yul\":13148:13229   */\n      sstore\n        /* \"#utility.yul\":13017:13239   */\n      pop\n        /* \"#utility.yul\":12352:13239   */\n      jump(tag_239)\n        /* \"#utility.yul\":12382:13000   */\n    tag_240:\n        /* \"#utility.yul\":12434:12438   */\n      0x1f\n        /* \"#utility.yul\":12430:12439   */\n      not\n        /* \"#utility.yul\":12422:12428   */\n      dup5\n        /* \"#utility.yul\":12418:12440   */\n      and\n        /* \"#utility.yul\":12468:12505   */\n      tag_243\n        /* \"#utility.yul\":12500:12504   */\n      dup7\n        /* \"#utility.yul\":12468:12505   */\n      tag_82\n      jump\t// in\n    tag_243:\n        /* \"#utility.yul\":12527:12528   */\n      0x00\n        /* \"#utility.yul\":12541:12749   */\n    tag_244:\n        /* \"#utility.yul\":12555:12562   */\n      dup3\n        /* \"#utility.yul\":12552:12553   */\n      dup2\n        /* \"#utility.yul\":12549:12563   */\n      lt\n        /* \"#utility.yul\":12541:12749   */\n      iszero\n      tag_246\n      jumpi\n        /* \"#utility.yul\":12634:12643   */\n      dup5\n        /* \"#utility.yul\":12629:12632   */\n      dup10\n        /* \"#utility.yul\":12625:12644   */\n      add\n        /* \"#utility.yul\":12619:12645   */\n      mload\n        /* \"#utility.yul\":12611:12617   */\n      dup3\n        /* \"#utility.yul\":12604:12646   */\n      sstore\n        /* \"#utility.yul\":12685:12686   */\n      0x01\n        /* \"#utility.yul\":12677:12683   */\n      dup3\n        /* \"#utility.yul\":12673:12687   */\n      add\n        /* \"#utility.yul\":12663:12687   */\n      swap2\n      pop\n        /* \"#utility.yul\":12732:12734   */\n      0x20\n        /* \"#utility.yul\":12721:12730   */\n      dup6\n        /* \"#utility.yul\":12717:12735   */\n      add\n        /* \"#utility.yul\":12704:12735   */\n      swap5\n      pop\n        /* \"#utility.yul\":12578:12582   */\n      0x20\n        /* \"#utility.yul\":12575:12576   */\n      dup2\n        /* \"#utility.yul\":12571:12583   */\n      add\n        /* \"#utility.yul\":12566:12583   */\n      swap1\n      pop\n        /* \"#utility.yul\":12541:12749   */\n      jump(tag_244)\n    tag_246:\n        /* \"#utility.yul\":12777:12783   */\n      dup7\n        /* \"#utility.yul\":12768:12775   */\n      dup4\n        /* \"#utility.yul\":12765:12784   */\n      lt\n        /* \"#utility.yul\":12762:12941   */\n      iszero\n      tag_247\n      jumpi\n        /* \"#utility.yul\":12835:12844   */\n      dup5\n        /* \"#utility.yul\":12830:12833   */\n      dup10\n        /* \"#utility.yul\":12826:12845   */\n      add\n        /* \"#utility.yul\":12820:12846   */\n      mload\n        /* \"#utility.yul\":12878:12926   */\n      tag_248\n        /* \"#utility.yul\":12920:12924   */\n      0x1f\n        /* \"#utility.yul\":12912:12918   */\n      dup10\n        /* \"#utility.yul\":12908:12925   */\n      and\n        /* \"#utility.yul\":12897:12906   */\n      dup3\n        /* \"#utility.yul\":12878:12926   */\n      tag_95\n      jump\t// in\n    tag_248:\n        /* \"#utility.yul\":12870:12876   */\n      dup4\n        /* \"#utility.yul\":12863:12927   */\n      sstore\n        /* \"#utility.yul\":12785:12941   */\n      pop\n        /* \"#utility.yul\":12762:12941   */\n    tag_247:\n        /* \"#utility.yul\":12987:12988   */\n      0x01\n        /* \"#utility.yul\":12983:12984   */\n      0x02\n        /* \"#utility.yul\":12975:12981   */\n      dup9\n        /* \"#utility.yul\":12971:12985   */\n      mul\n        /* \"#utility.yul\":12967:12989   */\n      add\n        /* \"#utility.yul\":12961:12965   */\n      dup9\n        /* \"#utility.yul\":12954:12990   */\n      sstore\n        /* \"#utility.yul\":12389:13000   */\n      pop\n      pop\n      pop\n        /* \"#utility.yul\":12352:13239   */\n    tag_239:\n      pop\n        /* \"#utility.yul\":11942:13245   */\n      pop\n      pop\n      pop\n        /* \"#utility.yul\":11850:13245   */\n      pop\n      pop\n      jump\t// out\n\n    auxdata: 0xa26469706673582212207a60e94ba592fc90681416a9dc2763715b293c038a1713cac7718575549287ac64736f6c634300081c0033\n}\n",
				"bytecode": {
					"linkReferences": {},
					"object": "6080604052348015600e575f5ffd5b50604051610c13380380610c138339818101604052810190602e919060ac565b806002819055503360035f6101000a81548173ffffffffffffffffffffffffffffffffffffffff021916908373ffffffffffffffffffffffffffffffffffffffff1602179055505060d2565b5f5ffd5b5f819050919050565b608e81607e565b81146097575f5ffd5b50565b5f8151905060a6816087565b92915050565b5f6020828403121560be5760bd607a565b5b5f60c984828501609a565b91505092915050565b610b34806100df5f395ff3fe608060405234801561000f575f5ffd5b5060043610610055575f3560e01c80630ad3430e1461005957806342cde4e81461008957806374dcdc63146100a7578063960bfe04146100d75780639bc2bc71146100f3575b5f5ffd5b610073600480360381019061006e919061041f565b610123565b6040516100809190610462565b60405180910390f35b610091610138565b60405161009e9190610462565b60405180910390f35b6100c160048036038101906100bc91906104a5565b61013e565b6040516100ce9190610553565b60405180910390f35b6100f160048036038101906100ec9190610573565b6101e3565b005b61010d600480360381019061010891906106ca565b61027c565b60405161011a919061072b565b60405180910390f35b6001602052805f5260405f205f915090505481565b60025481565b5f602052815f5260405f20602052805f5260405f205f9150915050805461016490610771565b80601f016020809104026020016040519081016040528092919081815260200182805461019090610771565b80156101db5780601f106101b2576101008083540402835291602001916101db565b820191905f5260205f20905b8154815290600101906020018083116101be57829003601f168201915b505050505081565b60035f9054906101000a900473ffffffffffffffffffffffffffffffffffffffff1673ffffffffffffffffffffffffffffffffffffffff163373ffffffffffffffffffffffffffffffffffffffff1614610272576040517f08c379a000000000000000000000000000000000000000000000000000000000815260040161026990610811565b60405180910390fd5b8060028190555050565b5f5f6001805f3373ffffffffffffffffffffffffffffffffffffffff1673ffffffffffffffffffffffffffffffffffffffff1681526020019081526020015f20546102c7919061085c565b90506002548111156102d857600190505b8060015f3373ffffffffffffffffffffffffffffffffffffffff1673ffffffffffffffffffffffffffffffffffffffff1681526020019081526020015f2081905550825f5f3373ffffffffffffffffffffffffffffffffffffffff1673ffffffffffffffffffffffffffffffffffffffff1681526020019081526020015f205f8381526020019081526020015f2090816103729190610a2f565b507f3c0c8dea9e5e5486a7d5b25f41716a0ee7b12a2a013316408a2fe0870a2f5710836040516103a29190610553565b60405180910390a16001915050919050565b5f604051905090565b5f5ffd5b5f5ffd5b5f73ffffffffffffffffffffffffffffffffffffffff82169050919050565b5f6103ee826103c5565b9050919050565b6103fe816103e4565b8114610408575f5ffd5b50565b5f81359050610419816103f5565b92915050565b5f60208284031215610434576104336103bd565b5b5f6104418482850161040b565b91505092915050565b5f819050919050565b61045c8161044a565b82525050565b5f6020820190506104755f830184610453565b92915050565b6104848161044a565b811461048e575f5ffd5b50565b5f8135905061049f8161047b565b92915050565b5f5f604083850312156104bb576104ba6103bd565b5b5f6104c88582860161040b565b92505060206104d985828601610491565b9150509250929050565b5f81519050919050565b5f82825260208201905092915050565b8281835e5f83830152505050565b5f601f19601f8301169050919050565b5f610525826104e3565b61052f81856104ed565b935061053f8185602086016104fd565b6105488161050b565b840191505092915050565b5f6020820190508181035f83015261056b818461051b565b905092915050565b5f60208284031215610588576105876103bd565b5b5f61059584828501610491565b91505092915050565b5f5ffd5b5f5ffd5b7f4e487b71000000000000000000000000000000000000000000000000000000005f52604160045260245ffd5b6105dc8261050b565b810181811067ffffffffffffffff821117156105fb576105fa6105a6565b5b80604052505050565b5f61060d6103b4565b905061061982826105d3565b919050565b5f67ffffffffffffffff821115610638576106376105a6565b5b6106418261050b565b9050602081019050919050565b828183375f83830152505050565b5f61066e6106698461061e565b610604565b90508281526020810184848401111561068a576106896105a2565b5b61069584828561064e565b509392505050565b5f82601f8301126106b1576106b061059e565b5b81356106c184826020860161065c565b91505092915050565b5f602082840312156106df576106de6103bd565b5b5f82013567ffffffffffffffff8111156106fc576106fb6103c1565b5b6107088482850161069d565b91505092915050565b5f8115159050919050565b61072581610711565b82525050565b5f60208201905061073e5f83018461071c565b92915050565b7f4e487b71000000000000000000000000000000000000000000000000000000005f52602260045260245ffd5b5f600282049050600182168061078857607f821691505b60208210810361079b5761079a610744565b5b50919050565b7f4f6e6c79206f776e65722063616e206578656375746520746869732066756e635f8201527f74696f6e00000000000000000000000000000000000000000000000000000000602082015250565b5f6107fb6024836104ed565b9150610806826107a1565b604082019050919050565b5f6020820190508181035f830152610828816107ef565b9050919050565b7f4e487b71000000000000000000000000000000000000000000000000000000005f52601160045260245ffd5b5f6108668261044a565b91506108718361044a565b92508282019050808211156108895761088861082f565b5b92915050565b5f819050815f5260205f209050919050565b5f6020601f8301049050919050565b5f82821b905092915050565b5f600883026108eb7fffffffffffffffffffffffffffffffffffffffffffffffffffffffffffffffff826108b0565b6108f586836108b0565b95508019841693508086168417925050509392505050565b5f819050919050565b5f61093061092b6109268461044a565b61090d565b61044a565b9050919050565b5f819050919050565b61094983610916565b61095d61095582610937565b8484546108bc565b825550505050565b5f5f905090565b610974610965565b61097f818484610940565b505050565b5b818110156109a2576109975f8261096c565b600181019050610985565b5050565b601f8211156109e7576109b88161088f565b6109c1846108a1565b810160208510156109d0578190505b6109e46109dc856108a1565b830182610984565b50505b505050565b5f82821c905092915050565b5f610a075f19846008026109ec565b1980831691505092915050565b5f610a1f83836109f8565b9150826002028217905092915050565b610a38826104e3565b67ffffffffffffffff811115610a5157610a506105a6565b5b610a5b8254610771565b610a668282856109a6565b5f60209050601f831160018114610a97575f8415610a85578287015190505b610a8f8582610a14565b865550610af6565b601f198416610aa58661088f565b5f5b82811015610acc57848901518255600182019150602085019450602081019050610aa7565b86831015610ae95784890151610ae5601f8916826109f8565b8355505b6001600288020188555050505b50505050505056fea26469706673582212207a60e94ba592fc90681416a9dc2763715b293c038a1713cac7718575549287ac64736f6c634300081c0033",
					"opcodes": "PUSH1 0x80 PUSH1 0x40 MSTORE CALLVALUE DUP1 ISZERO PUSH1 0xE JUMPI PUSH0 PUSH0 REVERT JUMPDEST POP PUSH1 0x40 MLOAD PUSH2 0xC13 CODESIZE SUB DUP1 PUSH2 0xC13 DUP4 CODECOPY DUP2 DUP2 ADD PUSH1 0x40 MSTORE DUP2 ADD SWAP1 PUSH1 0x2E SWAP2 SWAP1 PUSH1 0xAC JUMP JUMPDEST DUP1 PUSH1 0x2 DUP2 SWAP1 SSTORE POP CALLER PUSH1 0x3 PUSH0 PUSH2 0x100 EXP DUP2 SLOAD DUP2 PUSH20 0xFFFFFFFFFFFFFFFFFFFFFFFFFFFFFFFFFFFFFFFF MUL NOT AND SWAP1 DUP4 PUSH20 0xFFFFFFFFFFFFFFFFFFFFFFFFFFFFFFFFFFFFFFFF AND MUL OR SWAP1 SSTORE POP POP PUSH1 0xD2 JUMP JUMPDEST PUSH0 PUSH0 REVERT JUMPDEST PUSH0 DUP2 SWAP1 POP SWAP2 SWAP1 POP JUMP JUMPDEST PUSH1 0x8E DUP2 PUSH1 0x7E JUMP JUMPDEST DUP2 EQ PUSH1 0x97 JUMPI PUSH0 PUSH0 REVERT JUMPDEST POP JUMP JUMPDEST PUSH0 DUP2 MLOAD SWAP1 POP PUSH1 0xA6 DUP2 PUSH1 0x87 JUMP JUMPDEST SWAP3 SWAP2 POP POP JUMP JUMPDEST PUSH0 PUSH1 0x20 DUP3 DUP5 SUB SLT ISZERO PUSH1 0xBE JUMPI PUSH1 0xBD PUSH1 0x7A JUMP JUMPDEST JUMPDEST PUSH0 PUSH1 0xC9 DUP5 DUP3 DUP6 ADD PUSH1 0x9A JUMP JUMPDEST SWAP2 POP POP SWAP3 SWAP2 POP POP JUMP JUMPDEST PUSH2 0xB34 DUP1 PUSH2 0xDF PUSH0 CODECOPY PUSH0 RETURN INVALID PUSH1 0x80 PUSH1 0x40 MSTORE CALLVALUE DUP1 ISZERO PUSH2 0xF JUMPI PUSH0 PUSH0 REVERT JUMPDEST POP PUSH1 0x4 CALLDATASIZE LT PUSH2 0x55 JUMPI PUSH0 CALLDATALOAD PUSH1 0xE0 SHR DUP1 PUSH4 0xAD3430E EQ PUSH2 0x59 JUMPI DUP1 PUSH4 0x42CDE4E8 EQ PUSH2 0x89 JUMPI DUP1 PUSH4 0x74DCDC63 EQ PUSH2 0xA7 JUMPI DUP1 PUSH4 0x960BFE04 EQ PUSH2 0xD7 JUMPI DUP1 PUSH4 0x9BC2BC71 EQ PUSH2 0xF3 JUMPI JUMPDEST PUSH0 PUSH0 REVERT JUMPDEST PUSH2 0x73 PUSH1 0x4 DUP1 CALLDATASIZE SUB DUP2 ADD SWAP1 PUSH2 0x6E SWAP2 SWAP1 PUSH2 0x41F JUMP JUMPDEST PUSH2 0x123 JUMP JUMPDEST PUSH1 0x40 MLOAD PUSH2 0x80 SWAP2 SWAP1 PUSH2 0x462 JUMP JUMPDEST PUSH1 0x40 MLOAD DUP1 SWAP2 SUB SWAP1 RETURN JUMPDEST PUSH2 0x91 PUSH2 0x138 JUMP JUMPDEST PUSH1 0x40 MLOAD PUSH2 0x9E SWAP2 SWAP1 PUSH2 0x462 JUMP JUMPDEST PUSH1 0x40 MLOAD DUP1 SWAP2 SUB SWAP1 RETURN JUMPDEST PUSH2 0xC1 PUSH1 0x4 DUP1 CALLDATASIZE SUB DUP2 ADD SWAP1 PUSH2 0xBC SWAP2 SWAP1 PUSH2 0x4A5 JUMP JUMPDEST PUSH2 0x13E JUMP JUMPDEST PUSH1 0x40 MLOAD PUSH2 0xCE SWAP2 SWAP1 PUSH2 0x553 JUMP JUMPDEST PUSH1 0x40 MLOAD DUP1 SWAP2 SUB SWAP1 RETURN JUMPDEST PUSH2 0xF1 PUSH1 0x4 DUP1 CALLDATASIZE SUB DUP2 ADD SWAP1 PUSH2 0xEC SWAP2 SWAP1 PUSH2 0x573 JUMP JUMPDEST PUSH2 0x1E3 JUMP JUMPDEST STOP JUMPDEST PUSH2 0x10D PUSH1 0x4 DUP1 CALLDATASIZE SUB DUP2 ADD SWAP1 PUSH2 0x108 SWAP2 SWAP1 PUSH2 0x6CA JUMP JUMPDEST PUSH2 0x27C JUMP JUMPDEST PUSH1 0x40 MLOAD PUSH2 0x11A SWAP2 SWAP1 PUSH2 0x72B JUMP JUMPDEST PUSH1 0x40 MLOAD DUP1 SWAP2 SUB SWAP1 RETURN JUMPDEST PUSH1 0x1 PUSH1 0x20 MSTORE DUP1 PUSH0 MSTORE PUSH1 0x40 PUSH0 KECCAK256 PUSH0 SWAP2 POP SWAP1 POP SLOAD DUP2 JUMP JUMPDEST PUSH1 0x2 SLOAD DUP2 JUMP JUMPDEST PUSH0 PUSH1 0x20 MSTORE DUP2 PUSH0 MSTORE PUSH1 0x40 PUSH0 KECCAK256 PUSH1 0x20 MSTORE DUP1 PUSH0 MSTORE PUSH1 0x40 PUSH0 KECCAK256 PUSH0 SWAP2 POP SWAP2 POP POP DUP1 SLOAD PUSH2 0x164 SWAP1 PUSH2 0x771 JUMP JUMPDEST DUP1 PUSH1 0x1F ADD PUSH1 0x20 DUP1 SWAP2 DIV MUL PUSH1 0x20 ADD PUSH1 0x40 MLOAD SWAP1 DUP2 ADD PUSH1 0x40 MSTORE DUP1 SWAP3 SWAP2 SWAP1 DUP2 DUP2 MSTORE PUSH1 0x20 ADD DUP3 DUP1 SLOAD PUSH2 0x190 SWAP1 PUSH2 0x771 JUMP JUMPDEST DUP1 ISZERO PUSH2 0x1DB JUMPI DUP1 PUSH1 0x1F LT PUSH2 0x1B2 JUMPI PUSH2 0x100 DUP1 DUP4 SLOAD DIV MUL DUP4 MSTORE SWAP2 PUSH1 0x20 ADD SWAP2 PUSH2 0x1DB JUMP JUMPDEST DUP3 ADD SWAP2 SWAP1 PUSH0 MSTORE PUSH1 0x20 PUSH0 KECCAK256 SWAP1 JUMPDEST DUP2 SLOAD DUP2 MSTORE SWAP1 PUSH1 0x1 ADD SWAP1 PUSH1 0x20 ADD DUP1 DUP4 GT PUSH2 0x1BE JUMPI DUP3 SWAP1 SUB PUSH1 0x1F AND DUP3 ADD SWAP2 JUMPDEST POP POP POP POP POP DUP2 JUMP JUMPDEST PUSH1 0x3 PUSH0 SWAP1 SLOAD SWAP1 PUSH2 0x100 EXP SWAP1 DIV PUSH20 0xFFFFFFFFFFFFFFFFFFFFFFFFFFFFFFFFFFFFFFFF AND PUSH20 0xFFFFFFFFFFFFFFFFFFFFFFFFFFFFFFFFFFFFFFFF AND CALLER PUSH20 0xFFFFFFFFFFFFFFFFFFFFFFFFFFFFFFFFFFFFFFFF AND EQ PUSH2 0x272 JUMPI PUSH1 0x40 MLOAD PUSH32 0x8C379A000000000000000000000000000000000000000000000000000000000 DUP2 MSTORE PUSH1 0x4 ADD PUSH2 0x269 SWAP1 PUSH2 0x811 JUMP JUMPDEST PUSH1 0x40 MLOAD DUP1 SWAP2 SUB SWAP1 REVERT JUMPDEST DUP1 PUSH1 0x2 DUP2 SWAP1 SSTORE POP POP JUMP JUMPDEST PUSH0 PUSH0 PUSH1 0x1 DUP1 PUSH0 CALLER PUSH20 0xFFFFFFFFFFFFFFFFFFFFFFFFFFFFFFFFFFFFFFFF AND PUSH20 0xFFFFFFFFFFFFFFFFFFFFFFFFFFFFFFFFFFFFFFFF AND DUP2 MSTORE PUSH1 0x20 ADD SWAP1 DUP2 MSTORE PUSH1 0x20 ADD PUSH0 KECCAK256 SLOAD PUSH2 0x2C7 SWAP2 SWAP1 PUSH2 0x85C JUMP JUMPDEST SWAP1 POP PUSH1 0x2 SLOAD DUP2 GT ISZERO PUSH2 0x2D8 JUMPI PUSH1 0x1 SWAP1 POP JUMPDEST DUP1 PUSH1 0x1 PUSH0 CALLER PUSH20 0xFFFFFFFFFFFFFFFFFFFFFFFFFFFFFFFFFFFFFFFF AND PUSH20 0xFFFFFFFFFFFFFFFFFFFFFFFFFFFFFFFFFFFFFFFF AND DUP2 MSTORE PUSH1 0x20 ADD SWAP1 DUP2 MSTORE PUSH1 0x20 ADD PUSH0 KECCAK256 DUP2 SWAP1 SSTORE POP DUP3 PUSH0 PUSH0 CALLER PUSH20 0xFFFFFFFFFFFFFFFFFFFFFFFFFFFFFFFFFFFFFFFF AND PUSH20 0xFFFFFFFFFFFFFFFFFFFFFFFFFFFFFFFFFFFFFFFF AND DUP2 MSTORE PUSH1 0x20 ADD SWAP1 DUP2 MSTORE PUSH1 0x20 ADD PUSH0 KECCAK256 PUSH0 DUP4 DUP2 MSTORE PUSH1 0x20 ADD SWAP1 DUP2 MSTORE PUSH1 0x20 ADD PUSH0 KECCAK256 SWAP1 DUP2 PUSH2 0x372 SWAP2 SWAP1 PUSH2 0xA2F JUMP JUMPDEST POP PUSH32 0x3C0C8DEA9E5E5486A7D5B25F41716A0EE7B12A2A013316408A2FE0870A2F5710 DUP4 PUSH1 0x40 MLOAD PUSH2 0x3A2 SWAP2 SWAP1 PUSH2 0x553 JUMP JUMPDEST PUSH1 0x40 MLOAD DUP1 SWAP2 SUB SWAP1 LOG1 PUSH1 0x1 SWAP2 POP POP SWAP2 SWAP1 POP JUMP JUMPDEST PUSH0 PUSH1 0x40 MLOAD SWAP1 POP SWAP1 JUMP JUMPDEST PUSH0 PUSH0 REVERT JUMPDEST PUSH0 PUSH0 REVERT JUMPDEST PUSH0 PUSH20 0xFFFFFFFFFFFFFFFFFFFFFFFFFFFFFFFFFFFFFFFF DUP3 AND SWAP1 POP SWAP2 SWAP1 POP JUMP JUMPDEST PUSH0 PUSH2 0x3EE DUP3 PUSH2 0x3C5 JUMP JUMPDEST SWAP1 POP SWAP2 SWAP1 POP JUMP JUMPDEST PUSH2 0x3FE DUP2 PUSH2 0x3E4 JUMP JUMPDEST DUP2 EQ PUSH2 0x408 JUMPI PUSH0 PUSH0 REVERT JUMPDEST POP JUMP JUMPDEST PUSH0 DUP2 CALLDATALOAD SWAP1 POP PUSH2 0x419 DUP2 PUSH2 0x3F5 JUMP JUMPDEST SWAP3 SWAP2 POP POP JUMP JUMPDEST PUSH0 PUSH1 0x20 DUP3 DUP5 SUB SLT ISZERO PUSH2 0x434 JUMPI PUSH2 0x433 PUSH2 0x3BD JUMP JUMPDEST JUMPDEST PUSH0 PUSH2 0x441 DUP5 DUP3 DUP6 ADD PUSH2 0x40B JUMP JUMPDEST SWAP2 POP POP SWAP3 SWAP2 POP POP JUMP JUMPDEST PUSH0 DUP2 SWAP1 POP SWAP2 SWAP1 POP JUMP JUMPDEST PUSH2 0x45C DUP2 PUSH2 0x44A JUMP JUMPDEST DUP3 MSTORE POP POP JUMP JUMPDEST PUSH0 PUSH1 0x20 DUP3 ADD SWAP1 POP PUSH2 0x475 PUSH0 DUP4 ADD DUP5 PUSH2 0x453 JUMP JUMPDEST SWAP3 SWAP2 POP POP JUMP JUMPDEST PUSH2 0x484 DUP2 PUSH2 0x44A JUMP JUMPDEST DUP2 EQ PUSH2 0x48E JUMPI PUSH0 PUSH0 REVERT JUMPDEST POP JUMP JUMPDEST PUSH0 DUP2 CALLDATALOAD SWAP1 POP PUSH2 0x49F DUP2 PUSH2 0x47B JUMP JUMPDEST SWAP3 SWAP2 POP POP JUMP JUMPDEST PUSH0 PUSH0 PUSH1 0x40 DUP4 DUP6 SUB SLT ISZERO PUSH2 0x4BB JUMPI PUSH2 0x4BA PUSH2 0x3BD JUMP JUMPDEST JUMPDEST PUSH0 PUSH2 0x4C8 DUP6 DUP3 DUP7 ADD PUSH2 0x40B JUMP JUMPDEST SWAP3 POP POP PUSH1 0x20 PUSH2 0x4D9 DUP6 DUP3 DUP7 ADD PUSH2 0x491 JUMP JUMPDEST SWAP2 POP POP SWAP3 POP SWAP3 SWAP1 POP JUMP JUMPDEST PUSH0 DUP2 MLOAD SWAP1 POP SWAP2 SWAP1 POP JUMP JUMPDEST PUSH0 DUP3 DUP3 MSTORE PUSH1 0x20 DUP3 ADD SWAP1 POP SWAP3 SWAP2 POP POP JUMP JUMPDEST DUP3 DUP2 DUP4 MCOPY PUSH0 DUP4 DUP4 ADD MSTORE POP POP POP JUMP JUMPDEST PUSH0 PUSH1 0x1F NOT PUSH1 0x1F DUP4 ADD AND SWAP1 POP SWAP2 SWAP1 POP JUMP JUMPDEST PUSH0 PUSH2 0x525 DUP3 PUSH2 0x4E3 JUMP JUMPDEST PUSH2 0x52F DUP2 DUP6 PUSH2 0x4ED JUMP JUMPDEST SWAP4 POP PUSH2 0x53F DUP2 DUP6 PUSH1 0x20 DUP7 ADD PUSH2 0x4FD JUMP JUMPDEST PUSH2 0x548 DUP2 PUSH2 0x50B JUMP JUMPDEST DUP5 ADD SWAP2 POP POP SWAP3 SWAP2 POP POP JUMP JUMPDEST PUSH0 PUSH1 0x20 DUP3 ADD SWAP1 POP DUP2 DUP2 SUB PUSH0 DUP4 ADD MSTORE PUSH2 0x56B DUP2 DUP5 PUSH2 0x51B JUMP JUMPDEST SWAP1 POP SWAP3 SWAP2 POP POP JUMP JUMPDEST PUSH0 PUSH1 0x20 DUP3 DUP5 SUB SLT ISZERO PUSH2 0x588 JUMPI PUSH2 0x587 PUSH2 0x3BD JUMP JUMPDEST JUMPDEST PUSH0 PUSH2 0x595 DUP5 DUP3 DUP6 ADD PUSH2 0x491 JUMP JUMPDEST SWAP2 POP POP SWAP3 SWAP2 POP POP JUMP JUMPDEST PUSH0 PUSH0 REVERT JUMPDEST PUSH0 PUSH0 REVERT JUMPDEST PUSH32 0x4E487B7100000000000000000000000000000000000000000000000000000000 PUSH0 MSTORE PUSH1 0x41 PUSH1 0x4 MSTORE PUSH1 0x24 PUSH0 REVERT JUMPDEST PUSH2 0x5DC DUP3 PUSH2 0x50B JUMP JUMPDEST DUP2 ADD DUP2 DUP2 LT PUSH8 0xFFFFFFFFFFFFFFFF DUP3 GT OR ISZERO PUSH2 0x5FB JUMPI PUSH2 0x5FA PUSH2 0x5A6 JUMP JUMPDEST JUMPDEST DUP1 PUSH1 0x40 MSTORE POP POP POP JUMP JUMPDEST PUSH0 PUSH2 0x60D PUSH2 0x3B4 JUMP JUMPDEST SWAP1 POP PUSH2 0x619 DUP3 DUP3 PUSH2 0x5D3 JUMP JUMPDEST SWAP2 SWAP1 POP JUMP JUMPDEST PUSH0 PUSH8 0xFFFFFFFFFFFFFFFF DUP3 GT ISZERO PUSH2 0x638 JUMPI PUSH2 0x637 PUSH2 0x5A6 JUMP JUMPDEST JUMPDEST PUSH2 0x641 DUP3 PUSH2 0x50B JUMP JUMPDEST SWAP1 POP PUSH1 0x20 DUP2 ADD SWAP1 POP SWAP2 SWAP1 POP JUMP JUMPDEST DUP3 DUP2 DUP4 CALLDATACOPY PUSH0 DUP4 DUP4 ADD MSTORE POP POP POP JUMP JUMPDEST PUSH0 PUSH2 0x66E PUSH2 0x669 DUP5 PUSH2 0x61E JUMP JUMPDEST PUSH2 0x604 JUMP JUMPDEST SWAP1 POP DUP3 DUP2 MSTORE PUSH1 0x20 DUP2 ADD DUP5 DUP5 DUP5 ADD GT ISZERO PUSH2 0x68A JUMPI PUSH2 0x689 PUSH2 0x5A2 JUMP JUMPDEST JUMPDEST PUSH2 0x695 DUP5 DUP3 DUP6 PUSH2 0x64E JUMP JUMPDEST POP SWAP4 SWAP3 POP POP POP JUMP JUMPDEST PUSH0 DUP3 PUSH1 0x1F DUP4 ADD SLT PUSH2 0x6B1 JUMPI PUSH2 0x6B0 PUSH2 0x59E JUMP JUMPDEST JUMPDEST DUP2 CALLDATALOAD PUSH2 0x6C1 DUP5 DUP3 PUSH1 0x20 DUP7 ADD PUSH2 0x65C JUMP JUMPDEST SWAP2 POP POP SWAP3 SWAP2 POP POP JUMP JUMPDEST PUSH0 PUSH1 0x20 DUP3 DUP5 SUB SLT ISZERO PUSH2 0x6DF JUMPI PUSH2 0x6DE PUSH2 0x3BD JUMP JUMPDEST JUMPDEST PUSH0 DUP3 ADD CALLDATALOAD PUSH8 0xFFFFFFFFFFFFFFFF DUP2 GT ISZERO PUSH2 0x6FC JUMPI PUSH2 0x6FB PUSH2 0x3C1 JUMP JUMPDEST JUMPDEST PUSH2 0x708 DUP5 DUP3 DUP6 ADD PUSH2 0x69D JUMP JUMPDEST SWAP2 POP POP SWAP3 SWAP2 POP POP JUMP JUMPDEST PUSH0 DUP2 ISZERO ISZERO SWAP1 POP SWAP2 SWAP1 POP JUMP JUMPDEST PUSH2 0x725 DUP2 PUSH2 0x711 JUMP JUMPDEST DUP3 MSTORE POP POP JUMP JUMPDEST PUSH0 PUSH1 0x20 DUP3 ADD SWAP1 POP PUSH2 0x73E PUSH0 DUP4 ADD DUP5 PUSH2 0x71C JUMP JUMPDEST SWAP3 SWAP2 POP POP JUMP JUMPDEST PUSH32 0x4E487B7100000000000000000000000000000000000000000000000000000000 PUSH0 MSTORE PUSH1 0x22 PUSH1 0x4 MSTORE PUSH1 0x24 PUSH0 REVERT JUMPDEST PUSH0 PUSH1 0x2 DUP3 DIV SWAP1 POP PUSH1 0x1 DUP3 AND DUP1 PUSH2 0x788 JUMPI PUSH1 0x7F DUP3 AND SWAP2 POP JUMPDEST PUSH1 0x20 DUP3 LT DUP2 SUB PUSH2 0x79B JUMPI PUSH2 0x79A PUSH2 0x744 JUMP JUMPDEST JUMPDEST POP SWAP2 SWAP1 POP JUMP JUMPDEST PUSH32 0x4F6E6C79206F776E65722063616E206578656375746520746869732066756E63 PUSH0 DUP3 ADD MSTORE PUSH32 0x74696F6E00000000000000000000000000000000000000000000000000000000 PUSH1 0x20 DUP3 ADD MSTORE POP JUMP JUMPDEST PUSH0 PUSH2 0x7FB PUSH1 0x24 DUP4 PUSH2 0x4ED JUMP JUMPDEST SWAP2 POP PUSH2 0x806 DUP3 PUSH2 0x7A1 JUMP JUMPDEST PUSH1 0x40 DUP3 ADD SWAP1 POP SWAP2 SWAP1 POP JUMP JUMPDEST PUSH0 PUSH1 0x20 DUP3 ADD SWAP1 POP DUP2 DUP2 SUB PUSH0 DUP4 ADD MSTORE PUSH2 0x828 DUP2 PUSH2 0x7EF JUMP JUMPDEST SWAP1 POP SWAP2 SWAP1 POP JUMP JUMPDEST PUSH32 0x4E487B7100000000000000000000000000000000000000000000000000000000 PUSH0 MSTORE PUSH1 0x11 PUSH1 0x4 MSTORE PUSH1 0x24 PUSH0 REVERT JUMPDEST PUSH0 PUSH2 0x866 DUP3 PUSH2 0x44A JUMP JUMPDEST SWAP2 POP PUSH2 0x871 DUP4 PUSH2 0x44A JUMP JUMPDEST SWAP3 POP DUP3 DUP3 ADD SWAP1 POP DUP1 DUP3 GT ISZERO PUSH2 0x889 JUMPI PUSH2 0x888 PUSH2 0x82F JUMP JUMPDEST JUMPDEST SWAP3 SWAP2 POP POP JUMP JUMPDEST PUSH0 DUP2 SWAP1 POP DUP2 PUSH0 MSTORE PUSH1 0x20 PUSH0 KECCAK256 SWAP1 POP SWAP2 SWAP1 POP JUMP JUMPDEST PUSH0 PUSH1 0x20 PUSH1 0x1F DUP4 ADD DIV SWAP1 POP SWAP2 SWAP1 POP JUMP JUMPDEST PUSH0 DUP3 DUP3 SHL SWAP1 POP SWAP3 SWAP2 POP POP JUMP JUMPDEST PUSH0 PUSH1 0x8 DUP4 MUL PUSH2 0x8EB PUSH32 0xFFFFFFFFFFFFFFFFFFFFFFFFFFFFFFFFFFFFFFFFFFFFFFFFFFFFFFFFFFFFFFFF DUP3 PUSH2 0x8B0 JUMP JUMPDEST PUSH2 0x8F5 DUP7 DUP4 PUSH2 0x8B0 JUMP JUMPDEST SWAP6 POP DUP1 NOT DUP5 AND SWAP4 POP DUP1 DUP7 AND DUP5 OR SWAP3 POP POP POP SWAP4 SWAP3 POP POP POP JUMP JUMPDEST PUSH0 DUP2 SWAP1 POP SWAP2 SWAP1 POP JUMP JUMPDEST PUSH0 PUSH2 0x930 PUSH2 0x92B PUSH2 0x926 DUP5 PUSH2 0x44A JUMP JUMPDEST PUSH2 0x90D JUMP JUMPDEST PUSH2 0x44A JUMP JUMPDEST SWAP1 POP SWAP2 SWAP1 POP JUMP JUMPDEST PUSH0 DUP2 SWAP1 POP SWAP2 SWAP1 POP JUMP JUMPDEST PUSH2 0x949 DUP4 PUSH2 0x916 JUMP JUMPDEST PUSH2 0x95D PUSH2 0x955 DUP3 PUSH2 0x937 JUMP JUMPDEST DUP5 DUP5 SLOAD PUSH2 0x8BC JUMP JUMPDEST DUP3 SSTORE POP POP POP POP JUMP JUMPDEST PUSH0 PUSH0 SWAP1 POP SWAP1 JUMP JUMPDEST PUSH2 0x974 PUSH2 0x965 JUMP JUMPDEST PUSH2 0x97F DUP2 DUP5 DUP5 PUSH2 0x940 JUMP JUMPDEST POP POP POP JUMP JUMPDEST JUMPDEST DUP2 DUP2 LT ISZERO PUSH2 0x9A2 JUMPI PUSH2 0x997 PUSH0 DUP3 PUSH2 0x96C JUMP JUMPDEST PUSH1 0x1 DUP2 ADD SWAP1 POP PUSH2 0x985 JUMP JUMPDEST POP POP JUMP JUMPDEST PUSH1 0x1F DUP3 GT ISZERO PUSH2 0x9E7 JUMPI PUSH2 0x9B8 DUP2 PUSH2 0x88F JUMP JUMPDEST PUSH2 0x9C1 DUP5 PUSH2 0x8A1 JUMP JUMPDEST DUP2 ADD PUSH1 0x20 DUP6 LT ISZERO PUSH2 0x9D0 JUMPI DUP2 SWAP1 POP JUMPDEST PUSH2 0x9E4 PUSH2 0x9DC DUP6 PUSH2 0x8A1 JUMP JUMPDEST DUP4 ADD DUP3 PUSH2 0x984 JUMP JUMPDEST POP POP JUMPDEST POP POP POP JUMP JUMPDEST PUSH0 DUP3 DUP3 SHR SWAP1 POP SWAP3 SWAP2 POP POP JUMP JUMPDEST PUSH0 PUSH2 0xA07 PUSH0 NOT DUP5 PUSH1 0x8 MUL PUSH2 0x9EC JUMP JUMPDEST NOT DUP1 DUP4 AND SWAP2 POP POP SWAP3 SWAP2 POP POP JUMP JUMPDEST PUSH0 PUSH2 0xA1F DUP4 DUP4 PUSH2 0x9F8 JUMP JUMPDEST SWAP2 POP DUP3 PUSH1 0x2 MUL DUP3 OR SWAP1 POP SWAP3 SWAP2 POP POP JUMP JUMPDEST PUSH2 0xA38 DUP3 PUSH2 0x4E3 JUMP JUMPDEST PUSH8 0xFFFFFFFFFFFFFFFF DUP2 GT ISZERO PUSH2 0xA51 JUMPI PUSH2 0xA50 PUSH2 0x5A6 JUMP JUMPDEST JUMPDEST PUSH2 0xA5B DUP3 SLOAD PUSH2 0x771 JUMP JUMPDEST PUSH2 0xA66 DUP3 DUP3 DUP6 PUSH2 0x9A6 JUMP JUMPDEST PUSH0 PUSH1 0x20 SWAP1 POP PUSH1 0x1F DUP4 GT PUSH1 0x1 DUP2 EQ PUSH2 0xA97 JUMPI PUSH0 DUP5 ISZERO PUSH2 0xA85 JUMPI DUP3 DUP8 ADD MLOAD SWAP1 POP JUMPDEST PUSH2 0xA8F DUP6 DUP3 PUSH2 0xA14 JUMP JUMPDEST DUP7 SSTORE POP PUSH2 0xAF6 JUMP JUMPDEST PUSH1 0x1F NOT DUP5 AND PUSH2 0xAA5 DUP7 PUSH2 0x88F JUMP JUMPDEST PUSH0 JUMPDEST DUP3 DUP2 LT ISZERO PUSH2 0xACC JUMPI DUP5 DUP10 ADD MLOAD DUP3 SSTORE PUSH1 0x1 DUP3 ADD SWAP2 POP PUSH1 0x20 DUP6 ADD SWAP5 POP PUSH1 0x20 DUP2 ADD SWAP1 POP PUSH2 0xAA7 JUMP JUMPDEST DUP7 DUP4 LT ISZERO PUSH2 0xAE9 JUMPI DUP5 DUP10 ADD MLOAD PUSH2 0xAE5 PUSH1 0x1F DUP10 AND DUP3 PUSH2 0x9F8 JUMP JUMPDEST DUP4 SSTORE POP JUMPDEST PUSH1 0x1 PUSH1 0x2 DUP9 MUL ADD DUP9 SSTORE POP POP POP JUMPDEST POP POP POP POP POP POP JUMP INVALID LOG2 PUSH5 0x6970667358 0x22 SLT KECCAK256 PUSH27 0x60E94BA592FC90681416A9DC2763715B293C038A1713CAC7718575 SLOAD SWAP3 DUP8 0xAC PUSH5 0x736F6C6343 STOP ADDMOD SHR STOP CALLER "
				},
				"gasEstimates": {
					"creation": {
						"codeDepositCost": "573600",
						"executionCost": "infinite",
						"totalCost": "infinite"
					},
					"external": {
						"createEvent(string)": "infinite",
						"events(address,uint256)": "infinite",
						"eventsCounter(address)": "2780",
						"setThreshold(uint256)": "24728",
						"threshold()": "2425"
					}
				},
				"methodIdentifiers": {
					"createEvent(string)": "9bc2bc71",
					"events(address,uint256)": "74dcdc63",
					"eventsCounter(address)": "0ad3430e",
					"setThreshold(uint256)": "960bfe04",
					"threshold()": "42cde4e8"
				}
			},
			"storageLayout": {
				"storage": [
					{
						"astId": 11,
						"contract": "CiberSecurity/Event.sol:Event",
						"label": "events",
						"offset": 0,
						"slot": "0",
						"type": "t_mapping(t_address,t_mapping(t_uint256,t_string_storage))"
					},
					{
						"astId": 15,
						"contract": "CiberSecurity/Event.sol:Event",
						"label": "eventsCounter",
						"offset": 0,
						"slot": "1",
						"type": "t_mapping(t_address,t_uint256)"
					},
					{
						"astId": 17,
						"contract": "CiberSecurity/Event.sol:Event",
						"label": "threshold",
						"offset": 0,
						"slot": "2",
						"type": "t_uint256"
					},
					{
						"astId": 19,
						"contract": "CiberSecurity/Event.sol:Event",
						"label": "owner",
						"offset": 0,
						"slot": "3",
						"type": "t_address"
					}
				],
				"types": {
					"t_address": {
						"encoding": "inplace",
						"label": "address",
						"numberOfBytes": "20"
					},
					"t_mapping(t_address,t_mapping(t_uint256,t_string_storage))": {
						"encoding": "mapping",
						"key": "t_address",
						"label": "mapping(address => mapping(uint256 => string))",
						"numberOfBytes": "32",
						"value": "t_mapping(t_uint256,t_string_storage)"
					},
					"t_mapping(t_address,t_uint256)": {
						"encoding": "mapping",
						"key": "t_address",
						"label": "mapping(address => uint256)",
						"numberOfBytes": "32",
						"value": "t_uint256"
					},
					"t_mapping(t_uint256,t_string_storage)": {
						"encoding": "mapping",
						"key": "t_uint256",
						"label": "mapping(uint256 => string)",
						"numberOfBytes": "32",
						"value": "t_string_storage"
					},
					"t_string_storage": {
						"encoding": "bytes",
						"label": "string",
						"numberOfBytes": "32"
					},
					"t_uint256": {
						"encoding": "inplace",
						"label": "uint256",
						"numberOfBytes": "32"
					}
				}
			},
			"userdoc": {
				"kind": "user",
				"methods": {},
				"version": 1
			}
		}
	}
}